{
  "abi": [
    {
      "inputs": [
        {
          "internalType": "uint256",
          "name": "minValue",
          "type": "uint256"
        }
      ],
      "name": "createContract",
      "outputs": [],
      "stateMutability": "nonpayable",
      "type": "function"
    },
    {
      "inputs": [
        {
          "internalType": "uint256",
          "name": "",
          "type": "uint256"
        }
      ],
      "name": "deployedCampaigns",
      "outputs": [
        {
          "internalType": "contract Campaign",
          "name": "",
          "type": "address"
        }
      ],
      "stateMutability": "view",
      "type": "function"
    },
    {
      "inputs": [],
      "name": "getDeployedContracts",
      "outputs": [
        {
          "internalType": "contract Campaign[]",
          "name": "",
          "type": "address[]"
        }
      ],
      "stateMutability": "view",
      "type": "function"
    }
  ],
  "devdoc": {
    "kind": "dev",
    "methods": {},
    "version": 1
  },
  "evm": {
    "assembly": "    /* \"campaign.sol\":58:506  contract CampaignFactory {... */\n  mstore(0x40, 0x80)\n  callvalue\n  dup1\n  iszero\n  tag_1\n  jumpi\n  0x00\n  dup1\n  revert\ntag_1:\n  pop\n  dataSize(sub_0)\n  dup1\n  dataOffset(sub_0)\n  0x00\n  codecopy\n  0x00\n  return\nstop\n\nsub_0: assembly {\n        /* \"campaign.sol\":58:506  contract CampaignFactory {... */\n      mstore(0x40, 0x80)\n      callvalue\n      dup1\n      iszero\n      tag_1\n      jumpi\n      0x00\n      dup1\n      revert\n    tag_1:\n      pop\n      jumpi(tag_2, lt(calldatasize, 0x04))\n      shr(0xe0, calldataload(0x00))\n      dup1\n      0x339d50a5\n      eq\n      tag_3\n      jumpi\n      dup1\n      0x9db8d7d5\n      eq\n      tag_4\n      jumpi\n      dup1\n      0xaa9a068f\n      eq\n      tag_5\n      jumpi\n    tag_2:\n      0x00\n      dup1\n      revert\n        /* \"campaign.sol\":89:124  Campaign[] public deployedCampaigns */\n    tag_3:\n      tag_6\n      0x04\n      dup1\n      calldatasize\n      sub\n      dup2\n      add\n      swap1\n      tag_7\n      swap2\n      swap1\n      tag_8\n      jump\t// in\n    tag_7:\n      tag_9\n      jump\t// in\n    tag_6:\n      mload(0x40)\n      tag_10\n      swap2\n      swap1\n      tag_11\n      jump\t// in\n    tag_10:\n      mload(0x40)\n      dup1\n      swap2\n      sub\n      swap1\n      return\n        /* \"campaign.sol\":191:356  function createContract(uint minValue) public {... */\n    tag_4:\n      tag_12\n      0x04\n      dup1\n      calldatasize\n      sub\n      dup2\n      add\n      swap1\n      tag_13\n      swap2\n      swap1\n      tag_8\n      jump\t// in\n    tag_13:\n      tag_14\n      jump\t// in\n    tag_12:\n      stop\n        /* \"campaign.sol\":391:504  function getDeployedContracts() public view returns (Campaign[] memory) {... */\n    tag_5:\n      tag_15\n      tag_16\n      jump\t// in\n    tag_15:\n      mload(0x40)\n      tag_17\n      swap2\n      swap1\n      tag_18\n      jump\t// in\n    tag_17:\n      mload(0x40)\n      dup1\n      swap2\n      sub\n      swap1\n      return\n        /* \"campaign.sol\":89:124  Campaign[] public deployedCampaigns */\n    tag_9:\n      0x00\n      dup2\n      dup2\n      sload\n      dup2\n      lt\n      tag_19\n      jumpi\n      0x00\n      dup1\n      revert\n    tag_19:\n      swap1\n      0x00\n      mstore\n      keccak256(0x00, 0x20)\n      add\n      0x00\n      swap2\n      pop\n      sload\n      swap1\n      0x0100\n      exp\n      swap1\n      div\n      0xffffffffffffffffffffffffffffffffffffffff\n      and\n      dup2\n      jump\t// out\n        /* \"campaign.sol\":191:356  function createContract(uint minValue) public {... */\n    tag_14:\n        /* \"campaign.sol\":247:267  Campaign newCampaign */\n      0x00\n        /* \"campaign.sol\":284:292  minValue */\n      dup2\n        /* \"campaign.sol\":293:303  msg.sender */\n      caller\n        /* \"campaign.sol\":271:304  new Campaign(minValue,msg.sender) */\n      mload(0x40)\n      tag_22\n      swap1\n      tag_23\n      jump\t// in\n    tag_22:\n      tag_24\n      swap3\n      swap2\n      swap1\n      tag_25\n      jump\t// in\n    tag_24:\n      mload(0x40)\n      dup1\n      swap2\n      sub\n      swap1\n      0x00\n      create\n      dup1\n      iszero\n      dup1\n      iszero\n      tag_26\n      jumpi\n      returndatasize\n      0x00\n      dup1\n      returndatacopy\n      revert(0x00, returndatasize)\n    tag_26:\n      pop\n        /* \"campaign.sol\":247:304  Campaign newCampaign =  new Campaign(minValue,msg.sender) */\n      swap1\n      pop\n        /* \"campaign.sol\":314:331  deployedCampaigns */\n      0x00\n        /* \"campaign.sol\":337:348  newCampaign */\n      dup2\n        /* \"campaign.sol\":314:349  deployedCampaigns.push(newCampaign) */\n      swap1\n      dup1\n      0x01\n      dup2\n      sload\n      add\n      dup1\n      dup3\n      sstore\n      dup1\n      swap2\n      pop\n      pop\n      0x01\n      swap1\n      sub\n      swap1\n      0x00\n      mstore\n      keccak256(0x00, 0x20)\n      add\n      0x00\n      swap1\n      swap2\n      swap1\n      swap2\n      swap1\n      swap2\n      0x0100\n      exp\n      dup2\n      sload\n      dup2\n      0xffffffffffffffffffffffffffffffffffffffff\n      mul\n      not\n      and\n      swap1\n      dup4\n      0xffffffffffffffffffffffffffffffffffffffff\n      and\n      mul\n      or\n      swap1\n      sstore\n      pop\n        /* \"campaign.sol\":237:356  {... */\n      pop\n        /* \"campaign.sol\":191:356  function createContract(uint minValue) public {... */\n      pop\n      jump\t// out\n        /* \"campaign.sol\":391:504  function getDeployedContracts() public view returns (Campaign[] memory) {... */\n    tag_16:\n        /* \"campaign.sol\":444:461  Campaign[] memory */\n      0x60\n        /* \"campaign.sol\":480:497  deployedCampaigns */\n      0x00\n        /* \"campaign.sol\":473:497  return deployedCampaigns */\n      dup1\n      sload\n      dup1\n      0x20\n      mul\n      0x20\n      add\n      mload(0x40)\n      swap1\n      dup2\n      add\n      0x40\n      mstore\n      dup1\n      swap3\n      swap2\n      swap1\n      dup2\n      dup2\n      mstore\n      0x20\n      add\n      dup3\n      dup1\n      sload\n      dup1\n      iszero\n      tag_29\n      jumpi\n      0x20\n      mul\n      dup3\n      add\n      swap2\n      swap1\n      0x00\n      mstore\n      keccak256(0x00, 0x20)\n      swap1\n    tag_30:\n      dup2\n      0x00\n      swap1\n      sload\n      swap1\n      0x0100\n      exp\n      swap1\n      div\n      0xffffffffffffffffffffffffffffffffffffffff\n      and\n      0xffffffffffffffffffffffffffffffffffffffff\n      and\n      dup2\n      mstore\n      0x20\n      add\n      swap1\n      0x01\n      add\n      swap1\n      dup1\n      dup4\n      gt\n      tag_30\n      jumpi\n    tag_29:\n      pop\n      pop\n      pop\n      pop\n      pop\n      swap1\n      pop\n        /* \"campaign.sol\":391:504  function getDeployedContracts() public view returns (Campaign[] memory) {... */\n      swap1\n      jump\t// out\n    tag_23:\n      dataSize(sub_0)\n      dup1\n      dataOffset(sub_0)\n      dup4\n      codecopy\n      add\n      swap1\n      jump\t// out\n        /* \"#utility.yul\":88:205   */\n    tag_32:\n        /* \"#utility.yul\":197:198   */\n      0x00\n        /* \"#utility.yul\":194:195   */\n      dup1\n        /* \"#utility.yul\":187:199   */\n      revert\n        /* \"#utility.yul\":334:411   */\n    tag_34:\n        /* \"#utility.yul\":371:378   */\n      0x00\n        /* \"#utility.yul\":400:405   */\n      dup2\n        /* \"#utility.yul\":389:405   */\n      swap1\n      pop\n        /* \"#utility.yul\":334:411   */\n      swap2\n      swap1\n      pop\n      jump\t// out\n        /* \"#utility.yul\":417:539   */\n    tag_35:\n        /* \"#utility.yul\":490:514   */\n      tag_59\n        /* \"#utility.yul\":508:513   */\n      dup2\n        /* \"#utility.yul\":490:514   */\n      tag_34\n      jump\t// in\n    tag_59:\n        /* \"#utility.yul\":483:488   */\n      dup2\n        /* \"#utility.yul\":480:515   */\n      eq\n        /* \"#utility.yul\":470:533   */\n      tag_60\n      jumpi\n        /* \"#utility.yul\":529:530   */\n      0x00\n        /* \"#utility.yul\":526:527   */\n      dup1\n        /* \"#utility.yul\":519:531   */\n      revert\n        /* \"#utility.yul\":470:533   */\n    tag_60:\n        /* \"#utility.yul\":417:539   */\n      pop\n      jump\t// out\n        /* \"#utility.yul\":545:684   */\n    tag_36:\n        /* \"#utility.yul\":591:596   */\n      0x00\n        /* \"#utility.yul\":629:635   */\n      dup2\n        /* \"#utility.yul\":616:636   */\n      calldataload\n        /* \"#utility.yul\":607:636   */\n      swap1\n      pop\n        /* \"#utility.yul\":645:678   */\n      tag_62\n        /* \"#utility.yul\":672:677   */\n      dup2\n        /* \"#utility.yul\":645:678   */\n      tag_35\n      jump\t// in\n    tag_62:\n        /* \"#utility.yul\":545:684   */\n      swap3\n      swap2\n      pop\n      pop\n      jump\t// out\n        /* \"#utility.yul\":690:1019   */\n    tag_8:\n        /* \"#utility.yul\":749:755   */\n      0x00\n        /* \"#utility.yul\":798:800   */\n      0x20\n        /* \"#utility.yul\":786:795   */\n      dup3\n        /* \"#utility.yul\":777:784   */\n      dup5\n        /* \"#utility.yul\":773:796   */\n      sub\n        /* \"#utility.yul\":769:801   */\n      slt\n        /* \"#utility.yul\":766:885   */\n      iszero\n      tag_64\n      jumpi\n        /* \"#utility.yul\":804:883   */\n      tag_65\n      tag_32\n      jump\t// in\n    tag_65:\n        /* \"#utility.yul\":766:885   */\n    tag_64:\n        /* \"#utility.yul\":924:925   */\n      0x00\n        /* \"#utility.yul\":949:1002   */\n      tag_66\n        /* \"#utility.yul\":994:1001   */\n      dup5\n        /* \"#utility.yul\":985:991   */\n      dup3\n        /* \"#utility.yul\":974:983   */\n      dup6\n        /* \"#utility.yul\":970:992   */\n      add\n        /* \"#utility.yul\":949:1002   */\n      tag_36\n      jump\t// in\n    tag_66:\n        /* \"#utility.yul\":939:1002   */\n      swap2\n      pop\n        /* \"#utility.yul\":895:1012   */\n      pop\n        /* \"#utility.yul\":690:1019   */\n      swap3\n      swap2\n      pop\n      pop\n      jump\t// out\n        /* \"#utility.yul\":1025:1151   */\n    tag_37:\n        /* \"#utility.yul\":1062:1069   */\n      0x00\n        /* \"#utility.yul\":1102:1144   */\n      0xffffffffffffffffffffffffffffffffffffffff\n        /* \"#utility.yul\":1095:1100   */\n      dup3\n        /* \"#utility.yul\":1091:1145   */\n      and\n        /* \"#utility.yul\":1080:1145   */\n      swap1\n      pop\n        /* \"#utility.yul\":1025:1151   */\n      swap2\n      swap1\n      pop\n      jump\t// out\n        /* \"#utility.yul\":1157:1217   */\n    tag_38:\n        /* \"#utility.yul\":1185:1188   */\n      0x00\n        /* \"#utility.yul\":1206:1211   */\n      dup2\n        /* \"#utility.yul\":1199:1211   */\n      swap1\n      pop\n        /* \"#utility.yul\":1157:1217   */\n      swap2\n      swap1\n      pop\n      jump\t// out\n        /* \"#utility.yul\":1223:1365   */\n    tag_39:\n        /* \"#utility.yul\":1273:1282   */\n      0x00\n        /* \"#utility.yul\":1306:1359   */\n      tag_70\n        /* \"#utility.yul\":1324:1358   */\n      tag_71\n        /* \"#utility.yul\":1333:1357   */\n      tag_72\n        /* \"#utility.yul\":1351:1356   */\n      dup5\n        /* \"#utility.yul\":1333:1357   */\n      tag_37\n      jump\t// in\n    tag_72:\n        /* \"#utility.yul\":1324:1358   */\n      tag_38\n      jump\t// in\n    tag_71:\n        /* \"#utility.yul\":1306:1359   */\n      tag_37\n      jump\t// in\n    tag_70:\n        /* \"#utility.yul\":1293:1359   */\n      swap1\n      pop\n        /* \"#utility.yul\":1223:1365   */\n      swap2\n      swap1\n      pop\n      jump\t// out\n        /* \"#utility.yul\":1371:1497   */\n    tag_40:\n        /* \"#utility.yul\":1421:1430   */\n      0x00\n        /* \"#utility.yul\":1454:1491   */\n      tag_74\n        /* \"#utility.yul\":1485:1490   */\n      dup3\n        /* \"#utility.yul\":1454:1491   */\n      tag_39\n      jump\t// in\n    tag_74:\n        /* \"#utility.yul\":1441:1491   */\n      swap1\n      pop\n        /* \"#utility.yul\":1371:1497   */\n      swap2\n      swap1\n      pop\n      jump\t// out\n        /* \"#utility.yul\":1503:1645   */\n    tag_41:\n        /* \"#utility.yul\":1569:1578   */\n      0x00\n        /* \"#utility.yul\":1602:1639   */\n      tag_76\n        /* \"#utility.yul\":1633:1638   */\n      dup3\n        /* \"#utility.yul\":1602:1639   */\n      tag_40\n      jump\t// in\n    tag_76:\n        /* \"#utility.yul\":1589:1639   */\n      swap1\n      pop\n        /* \"#utility.yul\":1503:1645   */\n      swap2\n      swap1\n      pop\n      jump\t// out\n        /* \"#utility.yul\":1651:1814   */\n    tag_42:\n        /* \"#utility.yul\":1754:1807   */\n      tag_78\n        /* \"#utility.yul\":1801:1806   */\n      dup2\n        /* \"#utility.yul\":1754:1807   */\n      tag_41\n      jump\t// in\n    tag_78:\n        /* \"#utility.yul\":1749:1752   */\n      dup3\n        /* \"#utility.yul\":1742:1808   */\n      mstore\n        /* \"#utility.yul\":1651:1814   */\n      pop\n      pop\n      jump\t// out\n        /* \"#utility.yul\":1820:2074   */\n    tag_11:\n        /* \"#utility.yul\":1929:1933   */\n      0x00\n        /* \"#utility.yul\":1967:1969   */\n      0x20\n        /* \"#utility.yul\":1956:1965   */\n      dup3\n        /* \"#utility.yul\":1952:1970   */\n      add\n        /* \"#utility.yul\":1944:1970   */\n      swap1\n      pop\n        /* \"#utility.yul\":1980:2067   */\n      tag_80\n        /* \"#utility.yul\":2064:2065   */\n      0x00\n        /* \"#utility.yul\":2053:2062   */\n      dup4\n        /* \"#utility.yul\":2049:2066   */\n      add\n        /* \"#utility.yul\":2040:2046   */\n      dup5\n        /* \"#utility.yul\":1980:2067   */\n      tag_42\n      jump\t// in\n    tag_80:\n        /* \"#utility.yul\":1820:2074   */\n      swap3\n      swap2\n      pop\n      pop\n      jump\t// out\n        /* \"#utility.yul\":2080:2210   */\n    tag_43:\n        /* \"#utility.yul\":2163:2169   */\n      0x00\n        /* \"#utility.yul\":2197:2202   */\n      dup2\n        /* \"#utility.yul\":2191:2203   */\n      mload\n        /* \"#utility.yul\":2181:2203   */\n      swap1\n      pop\n        /* \"#utility.yul\":2080:2210   */\n      swap2\n      swap1\n      pop\n      jump\t// out\n        /* \"#utility.yul\":2216:2400   */\n    tag_44:\n        /* \"#utility.yul\":2315:2326   */\n      0x00\n        /* \"#utility.yul\":2349:2355   */\n      dup3\n        /* \"#utility.yul\":2344:2347   */\n      dup3\n        /* \"#utility.yul\":2337:2356   */\n      mstore\n        /* \"#utility.yul\":2389:2393   */\n      0x20\n        /* \"#utility.yul\":2384:2387   */\n      dup3\n        /* \"#utility.yul\":2380:2394   */\n      add\n        /* \"#utility.yul\":2365:2394   */\n      swap1\n      pop\n        /* \"#utility.yul\":2216:2400   */\n      swap3\n      swap2\n      pop\n      pop\n      jump\t// out\n        /* \"#utility.yul\":2406:2554   */\n    tag_45:\n        /* \"#utility.yul\":2489:2493   */\n      0x00\n        /* \"#utility.yul\":2512:2515   */\n      dup2\n        /* \"#utility.yul\":2504:2515   */\n      swap1\n      pop\n        /* \"#utility.yul\":2542:2546   */\n      0x20\n        /* \"#utility.yul\":2537:2540   */\n      dup3\n        /* \"#utility.yul\":2533:2547   */\n      add\n        /* \"#utility.yul\":2525:2547   */\n      swap1\n      pop\n        /* \"#utility.yul\":2406:2554   */\n      swap2\n      swap1\n      pop\n      jump\t// out\n        /* \"#utility.yul\":2560:2713   */\n    tag_46:\n        /* \"#utility.yul\":2653:2706   */\n      tag_85\n        /* \"#utility.yul\":2700:2705   */\n      dup2\n        /* \"#utility.yul\":2653:2706   */\n      tag_41\n      jump\t// in\n    tag_85:\n        /* \"#utility.yul\":2648:2651   */\n      dup3\n        /* \"#utility.yul\":2641:2707   */\n      mstore\n        /* \"#utility.yul\":2560:2713   */\n      pop\n      pop\n      jump\t// out\n        /* \"#utility.yul\":2719:2930   */\n    tag_47:\n        /* \"#utility.yul\":2804:2814   */\n      0x00\n        /* \"#utility.yul\":2825:2887   */\n      tag_87\n        /* \"#utility.yul\":2883:2886   */\n      dup4\n        /* \"#utility.yul\":2875:2881   */\n      dup4\n        /* \"#utility.yul\":2825:2887   */\n      tag_46\n      jump\t// in\n    tag_87:\n        /* \"#utility.yul\":2919:2923   */\n      0x20\n        /* \"#utility.yul\":2914:2917   */\n      dup4\n        /* \"#utility.yul\":2910:2924   */\n      add\n        /* \"#utility.yul\":2896:2924   */\n      swap1\n      pop\n        /* \"#utility.yul\":2719:2930   */\n      swap3\n      swap2\n      pop\n      pop\n      jump\t// out\n        /* \"#utility.yul\":2936:3065   */\n    tag_48:\n        /* \"#utility.yul\":3022:3026   */\n      0x00\n        /* \"#utility.yul\":3054:3058   */\n      0x20\n        /* \"#utility.yul\":3049:3052   */\n      dup3\n        /* \"#utility.yul\":3045:3059   */\n      add\n        /* \"#utility.yul\":3037:3059   */\n      swap1\n      pop\n        /* \"#utility.yul\":2936:3065   */\n      swap2\n      swap1\n      pop\n      jump\t// out\n        /* \"#utility.yul\":3111:3923   */\n    tag_49:\n        /* \"#utility.yul\":3246:3249   */\n      0x00\n        /* \"#utility.yul\":3275:3345   */\n      tag_90\n        /* \"#utility.yul\":3339:3344   */\n      dup3\n        /* \"#utility.yul\":3275:3345   */\n      tag_43\n      jump\t// in\n    tag_90:\n        /* \"#utility.yul\":3361:3447   */\n      tag_91\n        /* \"#utility.yul\":3440:3446   */\n      dup2\n        /* \"#utility.yul\":3435:3438   */\n      dup6\n        /* \"#utility.yul\":3361:3447   */\n      tag_44\n      jump\t// in\n    tag_91:\n        /* \"#utility.yul\":3354:3447   */\n      swap4\n      pop\n        /* \"#utility.yul\":3471:3543   */\n      tag_92\n        /* \"#utility.yul\":3537:3542   */\n      dup4\n        /* \"#utility.yul\":3471:3543   */\n      tag_45\n      jump\t// in\n    tag_92:\n        /* \"#utility.yul\":3566:3573   */\n      dup1\n        /* \"#utility.yul\":3597:3598   */\n      0x00\n        /* \"#utility.yul\":3582:3898   */\n    tag_93:\n        /* \"#utility.yul\":3607:3613   */\n      dup4\n        /* \"#utility.yul\":3604:3605   */\n      dup2\n        /* \"#utility.yul\":3601:3614   */\n      lt\n        /* \"#utility.yul\":3582:3898   */\n      iszero\n      tag_95\n      jumpi\n        /* \"#utility.yul\":3683:3689   */\n      dup2\n        /* \"#utility.yul\":3677:3690   */\n      mload\n        /* \"#utility.yul\":3710:3789   */\n      tag_96\n        /* \"#utility.yul\":3785:3788   */\n      dup9\n        /* \"#utility.yul\":3770:3783   */\n      dup3\n        /* \"#utility.yul\":3710:3789   */\n      tag_47\n      jump\t// in\n    tag_96:\n        /* \"#utility.yul\":3703:3789   */\n      swap8\n      pop\n        /* \"#utility.yul\":3812:3888   */\n      tag_97\n        /* \"#utility.yul\":3881:3887   */\n      dup4\n        /* \"#utility.yul\":3812:3888   */\n      tag_48\n      jump\t// in\n    tag_97:\n        /* \"#utility.yul\":3802:3888   */\n      swap3\n      pop\n        /* \"#utility.yul\":3642:3898   */\n      pop\n        /* \"#utility.yul\":3629:3630   */\n      0x01\n        /* \"#utility.yul\":3626:3627   */\n      dup2\n        /* \"#utility.yul\":3622:3631   */\n      add\n        /* \"#utility.yul\":3617:3631   */\n      swap1\n      pop\n        /* \"#utility.yul\":3582:3898   */\n      jump(tag_93)\n    tag_95:\n        /* \"#utility.yul\":3586:3600   */\n      pop\n        /* \"#utility.yul\":3914:3917   */\n      dup6\n        /* \"#utility.yul\":3907:3917   */\n      swap4\n      pop\n        /* \"#utility.yul\":3251:3923   */\n      pop\n      pop\n      pop\n        /* \"#utility.yul\":3111:3923   */\n      swap3\n      swap2\n      pop\n      pop\n      jump\t// out\n        /* \"#utility.yul\":3929:4334   */\n    tag_18:\n        /* \"#utility.yul\":4088:4092   */\n      0x00\n        /* \"#utility.yul\":4126:4128   */\n      0x20\n        /* \"#utility.yul\":4115:4124   */\n      dup3\n        /* \"#utility.yul\":4111:4129   */\n      add\n        /* \"#utility.yul\":4103:4129   */\n      swap1\n      pop\n        /* \"#utility.yul\":4175:4184   */\n      dup2\n        /* \"#utility.yul\":4169:4173   */\n      dup2\n        /* \"#utility.yul\":4165:4185   */\n      sub\n        /* \"#utility.yul\":4161:4162   */\n      0x00\n        /* \"#utility.yul\":4150:4159   */\n      dup4\n        /* \"#utility.yul\":4146:4163   */\n      add\n        /* \"#utility.yul\":4139:4186   */\n      mstore\n        /* \"#utility.yul\":4203:4327   */\n      tag_99\n        /* \"#utility.yul\":4322:4326   */\n      dup2\n        /* \"#utility.yul\":4313:4319   */\n      dup5\n        /* \"#utility.yul\":4203:4327   */\n      tag_49\n      jump\t// in\n    tag_99:\n        /* \"#utility.yul\":4195:4327   */\n      swap1\n      pop\n        /* \"#utility.yul\":3929:4334   */\n      swap3\n      swap2\n      pop\n      pop\n      jump\t// out\n        /* \"#utility.yul\":4340:4458   */\n    tag_50:\n        /* \"#utility.yul\":4427:4451   */\n      tag_101\n        /* \"#utility.yul\":4445:4450   */\n      dup2\n        /* \"#utility.yul\":4427:4451   */\n      tag_34\n      jump\t// in\n    tag_101:\n        /* \"#utility.yul\":4422:4425   */\n      dup3\n        /* \"#utility.yul\":4415:4452   */\n      mstore\n        /* \"#utility.yul\":4340:4458   */\n      pop\n      pop\n      jump\t// out\n        /* \"#utility.yul\":4464:4560   */\n    tag_51:\n        /* \"#utility.yul\":4501:4508   */\n      0x00\n        /* \"#utility.yul\":4530:4554   */\n      tag_103\n        /* \"#utility.yul\":4548:4553   */\n      dup3\n        /* \"#utility.yul\":4530:4554   */\n      tag_37\n      jump\t// in\n    tag_103:\n        /* \"#utility.yul\":4519:4554   */\n      swap1\n      pop\n        /* \"#utility.yul\":4464:4560   */\n      swap2\n      swap1\n      pop\n      jump\t// out\n        /* \"#utility.yul\":4566:4684   */\n    tag_52:\n        /* \"#utility.yul\":4653:4677   */\n      tag_105\n        /* \"#utility.yul\":4671:4676   */\n      dup2\n        /* \"#utility.yul\":4653:4677   */\n      tag_51\n      jump\t// in\n    tag_105:\n        /* \"#utility.yul\":4648:4651   */\n      dup3\n        /* \"#utility.yul\":4641:4678   */\n      mstore\n        /* \"#utility.yul\":4566:4684   */\n      pop\n      pop\n      jump\t// out\n        /* \"#utility.yul\":4690:5022   */\n    tag_25:\n        /* \"#utility.yul\":4811:4815   */\n      0x00\n        /* \"#utility.yul\":4849:4851   */\n      0x40\n        /* \"#utility.yul\":4838:4847   */\n      dup3\n        /* \"#utility.yul\":4834:4852   */\n      add\n        /* \"#utility.yul\":4826:4852   */\n      swap1\n      pop\n        /* \"#utility.yul\":4862:4933   */\n      tag_107\n        /* \"#utility.yul\":4930:4931   */\n      0x00\n        /* \"#utility.yul\":4919:4928   */\n      dup4\n        /* \"#utility.yul\":4915:4932   */\n      add\n        /* \"#utility.yul\":4906:4912   */\n      dup6\n        /* \"#utility.yul\":4862:4933   */\n      tag_50\n      jump\t// in\n    tag_107:\n        /* \"#utility.yul\":4943:5015   */\n      tag_108\n        /* \"#utility.yul\":5011:5013   */\n      0x20\n        /* \"#utility.yul\":5000:5009   */\n      dup4\n        /* \"#utility.yul\":4996:5014   */\n      add\n        /* \"#utility.yul\":4987:4993   */\n      dup5\n        /* \"#utility.yul\":4943:5015   */\n      tag_52\n      jump\t// in\n    tag_108:\n        /* \"#utility.yul\":4690:5022   */\n      swap4\n      swap3\n      pop\n      pop\n      pop\n      jump\t// out\n    stop\n\n    sub_0: assembly {\n            /* \"campaign.sol\":508:3239  contract Campaign {... */\n          mstore(0x40, 0x80)\n            /* \"campaign.sol\":1107:1108  0 */\n          0x00\n            /* \"campaign.sol\":1091:1108  uint reqIndex = 0 */\n          0x04\n          sstore\n            /* \"campaign.sol\":1206:1207  0 */\n          0x00\n            /* \"campaign.sol\":1178:1207  uint public requestsCount = 0 */\n          0x06\n          sstore\n            /* \"campaign.sol\":1369:1487  constructor(uint minValue, address creator) {... */\n          callvalue\n          dup1\n          iszero\n          tag_1\n          jumpi\n          0x00\n          dup1\n          revert\n        tag_1:\n          pop\n          mload(0x40)\n          sub(codesize, bytecodeSize)\n          dup1\n          bytecodeSize\n          dup4\n          codecopy\n          dup2\n          dup2\n          add\n          0x40\n          mstore\n          dup2\n          add\n          swap1\n          tag_2\n          swap2\n          swap1\n          tag_3\n          jump\t// in\n        tag_2:\n            /* \"campaign.sol\":1433:1440  creator */\n          dup1\n            /* \"campaign.sol\":1423:1430  manager */\n          0x00\n          dup1\n            /* \"campaign.sol\":1423:1440  manager = creator */\n          0x0100\n          exp\n          dup2\n          sload\n          dup2\n          0xffffffffffffffffffffffffffffffffffffffff\n          mul\n          not\n          and\n          swap1\n          dup4\n          0xffffffffffffffffffffffffffffffffffffffff\n          and\n          mul\n          or\n          swap1\n          sstore\n          pop\n            /* \"campaign.sol\":1472:1480  minValue */\n          dup2\n            /* \"campaign.sol\":1450:1469  minimumContribution */\n          0x01\n            /* \"campaign.sol\":1450:1480  minimumContribution = minValue */\n          dup2\n          swap1\n          sstore\n          pop\n            /* \"campaign.sol\":1369:1487  constructor(uint minValue, address creator) {... */\n          pop\n          pop\n            /* \"campaign.sol\":508:3239  contract Campaign {... */\n          jump(tag_6)\n            /* \"#utility.yul\":88:205   */\n        tag_8:\n            /* \"#utility.yul\":197:198   */\n          0x00\n            /* \"#utility.yul\":194:195   */\n          dup1\n            /* \"#utility.yul\":187:199   */\n          revert\n            /* \"#utility.yul\":334:411   */\n        tag_10:\n            /* \"#utility.yul\":371:378   */\n          0x00\n            /* \"#utility.yul\":400:405   */\n          dup2\n            /* \"#utility.yul\":389:405   */\n          swap1\n          pop\n            /* \"#utility.yul\":334:411   */\n          swap2\n          swap1\n          pop\n          jump\t// out\n            /* \"#utility.yul\":417:539   */\n        tag_11:\n            /* \"#utility.yul\":490:514   */\n          tag_23\n            /* \"#utility.yul\":508:513   */\n          dup2\n            /* \"#utility.yul\":490:514   */\n          tag_10\n          jump\t// in\n        tag_23:\n            /* \"#utility.yul\":483:488   */\n          dup2\n            /* \"#utility.yul\":480:515   */\n          eq\n            /* \"#utility.yul\":470:533   */\n          tag_24\n          jumpi\n            /* \"#utility.yul\":529:530   */\n          0x00\n            /* \"#utility.yul\":526:527   */\n          dup1\n            /* \"#utility.yul\":519:531   */\n          revert\n            /* \"#utility.yul\":470:533   */\n        tag_24:\n            /* \"#utility.yul\":417:539   */\n          pop\n          jump\t// out\n            /* \"#utility.yul\":545:688   */\n        tag_12:\n            /* \"#utility.yul\":602:607   */\n          0x00\n            /* \"#utility.yul\":633:639   */\n          dup2\n            /* \"#utility.yul\":627:640   */\n          mload\n            /* \"#utility.yul\":618:640   */\n          swap1\n          pop\n            /* \"#utility.yul\":649:682   */\n          tag_26\n            /* \"#utility.yul\":676:681   */\n          dup2\n            /* \"#utility.yul\":649:682   */\n          tag_11\n          jump\t// in\n        tag_26:\n            /* \"#utility.yul\":545:688   */\n          swap3\n          swap2\n          pop\n          pop\n          jump\t// out\n            /* \"#utility.yul\":694:820   */\n        tag_13:\n            /* \"#utility.yul\":731:738   */\n          0x00\n            /* \"#utility.yul\":771:813   */\n          0xffffffffffffffffffffffffffffffffffffffff\n            /* \"#utility.yul\":764:769   */\n          dup3\n            /* \"#utility.yul\":760:814   */\n          and\n            /* \"#utility.yul\":749:814   */\n          swap1\n          pop\n            /* \"#utility.yul\":694:820   */\n          swap2\n          swap1\n          pop\n          jump\t// out\n            /* \"#utility.yul\":826:922   */\n        tag_14:\n            /* \"#utility.yul\":863:870   */\n          0x00\n            /* \"#utility.yul\":892:916   */\n          tag_29\n            /* \"#utility.yul\":910:915   */\n          dup3\n            /* \"#utility.yul\":892:916   */\n          tag_13\n          jump\t// in\n        tag_29:\n            /* \"#utility.yul\":881:916   */\n          swap1\n          pop\n            /* \"#utility.yul\":826:922   */\n          swap2\n          swap1\n          pop\n          jump\t// out\n            /* \"#utility.yul\":928:1050   */\n        tag_15:\n            /* \"#utility.yul\":1001:1025   */\n          tag_31\n            /* \"#utility.yul\":1019:1024   */\n          dup2\n            /* \"#utility.yul\":1001:1025   */\n          tag_14\n          jump\t// in\n        tag_31:\n            /* \"#utility.yul\":994:999   */\n          dup2\n            /* \"#utility.yul\":991:1026   */\n          eq\n            /* \"#utility.yul\":981:1044   */\n          tag_32\n          jumpi\n            /* \"#utility.yul\":1040:1041   */\n          0x00\n            /* \"#utility.yul\":1037:1038   */\n          dup1\n            /* \"#utility.yul\":1030:1042   */\n          revert\n            /* \"#utility.yul\":981:1044   */\n        tag_32:\n            /* \"#utility.yul\":928:1050   */\n          pop\n          jump\t// out\n            /* \"#utility.yul\":1056:1199   */\n        tag_16:\n            /* \"#utility.yul\":1113:1118   */\n          0x00\n            /* \"#utility.yul\":1144:1150   */\n          dup2\n            /* \"#utility.yul\":1138:1151   */\n          mload\n            /* \"#utility.yul\":1129:1151   */\n          swap1\n          pop\n            /* \"#utility.yul\":1160:1193   */\n          tag_34\n            /* \"#utility.yul\":1187:1192   */\n          dup2\n            /* \"#utility.yul\":1160:1193   */\n          tag_15\n          jump\t// in\n        tag_34:\n            /* \"#utility.yul\":1056:1199   */\n          swap3\n          swap2\n          pop\n          pop\n          jump\t// out\n            /* \"#utility.yul\":1205:1712   */\n        tag_3:\n            /* \"#utility.yul\":1284:1290   */\n          0x00\n            /* \"#utility.yul\":1292:1298   */\n          dup1\n            /* \"#utility.yul\":1341:1343   */\n          0x40\n            /* \"#utility.yul\":1329:1338   */\n          dup4\n            /* \"#utility.yul\":1320:1327   */\n          dup6\n            /* \"#utility.yul\":1316:1339   */\n          sub\n            /* \"#utility.yul\":1312:1344   */\n          slt\n            /* \"#utility.yul\":1309:1428   */\n          iszero\n          tag_36\n          jumpi\n            /* \"#utility.yul\":1347:1426   */\n          tag_37\n          tag_8\n          jump\t// in\n        tag_37:\n            /* \"#utility.yul\":1309:1428   */\n        tag_36:\n            /* \"#utility.yul\":1467:1468   */\n          0x00\n            /* \"#utility.yul\":1492:1556   */\n          tag_38\n            /* \"#utility.yul\":1548:1555   */\n          dup6\n            /* \"#utility.yul\":1539:1545   */\n          dup3\n            /* \"#utility.yul\":1528:1537   */\n          dup7\n            /* \"#utility.yul\":1524:1546   */\n          add\n            /* \"#utility.yul\":1492:1556   */\n          tag_12\n          jump\t// in\n        tag_38:\n            /* \"#utility.yul\":1482:1556   */\n          swap3\n          pop\n            /* \"#utility.yul\":1438:1566   */\n          pop\n            /* \"#utility.yul\":1605:1607   */\n          0x20\n            /* \"#utility.yul\":1631:1695   */\n          tag_39\n            /* \"#utility.yul\":1687:1694   */\n          dup6\n            /* \"#utility.yul\":1678:1684   */\n          dup3\n            /* \"#utility.yul\":1667:1676   */\n          dup7\n            /* \"#utility.yul\":1663:1685   */\n          add\n            /* \"#utility.yul\":1631:1695   */\n          tag_16\n          jump\t// in\n        tag_39:\n            /* \"#utility.yul\":1621:1695   */\n          swap2\n          pop\n            /* \"#utility.yul\":1576:1705   */\n          pop\n            /* \"#utility.yul\":1205:1712   */\n          swap3\n          pop\n          swap3\n          swap1\n          pop\n          jump\t// out\n            /* \"campaign.sol\":508:3239  contract Campaign {... */\n        tag_6:\n          dataSize(sub_0)\n          dup1\n          dataOffset(sub_0)\n          0x00\n          codecopy\n          0x00\n          return\n        stop\n\n        sub_0: assembly {\n                /* \"campaign.sol\":508:3239  contract Campaign {... */\n              mstore(0x40, 0x80)\n              jumpi(tag_1, lt(calldatasize, 0x04))\n              shr(0xe0, calldataload(0x00))\n              dup1\n              0x82fde093\n              gt\n              tag_13\n              jumpi\n              dup1\n              0x82fde093\n              eq\n              tag_7\n              jumpi\n              dup1\n              0x8a9cfd55\n              eq\n              tag_8\n              jumpi\n              dup1\n              0x937e09b1\n              eq\n              tag_9\n              jumpi\n              dup1\n              0xd7bb99ba\n              eq\n              tag_10\n              jumpi\n              dup1\n              0xd7d1bbdb\n              eq\n              tag_11\n              jumpi\n              dup1\n              0xfbfa4b7f\n              eq\n              tag_12\n              jumpi\n              jump(tag_1)\n            tag_13:\n              dup1\n              0x03441006\n              eq\n              tag_2\n              jumpi\n              dup1\n              0x0a144391\n              eq\n              tag_3\n              jumpi\n              dup1\n              0x4051ddac\n              eq\n              tag_4\n              jumpi\n              dup1\n              0x481c6a75\n              eq\n              tag_5\n              jumpi\n              dup1\n              0x81d12c58\n              eq\n              tag_6\n              jumpi\n            tag_1:\n              0x00\n              dup1\n              revert\n                /* \"campaign.sol\":2752:2979  function finalizeRequest(uint index) public restricted {... */\n            tag_2:\n              callvalue\n              dup1\n              iszero\n              tag_14\n              jumpi\n              0x00\n              dup1\n              revert\n            tag_14:\n              pop\n              tag_15\n              0x04\n              dup1\n              calldatasize\n              sub\n              dup2\n              add\n              swap1\n              tag_16\n              swap2\n              swap1\n              tag_17\n              jump\t// in\n            tag_16:\n              tag_18\n              jump\t// in\n            tag_15:\n              stop\n                /* \"campaign.sol\":981:1022  mapping(address => bool) public approvers */\n            tag_3:\n              callvalue\n              dup1\n              iszero\n              tag_19\n              jumpi\n              0x00\n              dup1\n              revert\n            tag_19:\n              pop\n              tag_20\n              0x04\n              dup1\n              calldatasize\n              sub\n              dup2\n              add\n              swap1\n              tag_21\n              swap2\n              swap1\n              tag_22\n              jump\t// in\n            tag_21:\n              tag_23\n              jump\t// in\n            tag_20:\n              mload(0x40)\n              tag_24\n              swap2\n              swap1\n              tag_25\n              jump\t// in\n            tag_24:\n              mload(0x40)\n              dup1\n              swap2\n              sub\n              swap1\n              return\n                /* \"campaign.sol\":2986:3237  function getSummary() public view returns (uint,uint,uint,uint,address) {... */\n            tag_4:\n              callvalue\n              dup1\n              iszero\n              tag_26\n              jumpi\n              0x00\n              dup1\n              revert\n            tag_26:\n              pop\n              tag_27\n              tag_28\n              jump\t// in\n            tag_27:\n              mload(0x40)\n              tag_29\n              swap6\n              swap5\n              swap4\n              swap3\n              swap2\n              swap1\n              tag_30\n              jump\t// in\n            tag_29:\n              mload(0x40)\n              dup1\n              swap2\n              sub\n              swap1\n              return\n                /* \"campaign.sol\":870:892  address public manager */\n            tag_5:\n              callvalue\n              dup1\n              iszero\n              tag_31\n              jumpi\n              0x00\n              dup1\n              revert\n            tag_31:\n              pop\n              tag_32\n              tag_33\n              jump\t// in\n            tag_32:\n              mload(0x40)\n              tag_34\n              swap2\n              swap1\n              tag_35\n              jump\t// in\n            tag_34:\n              mload(0x40)\n              dup1\n              swap2\n              sub\n              swap1\n              return\n                /* \"campaign.sol\":1115:1155  mapping(uint => Request) public requests */\n            tag_6:\n              callvalue\n              dup1\n              iszero\n              tag_36\n              jumpi\n              0x00\n              dup1\n              revert\n            tag_36:\n              pop\n              tag_37\n              0x04\n              dup1\n              calldatasize\n              sub\n              dup2\n              add\n              swap1\n              tag_38\n              swap2\n              swap1\n              tag_17\n              jump\t// in\n            tag_38:\n              tag_39\n              jump\t// in\n            tag_37:\n              mload(0x40)\n              tag_40\n              swap6\n              swap5\n              swap4\n              swap3\n              swap2\n              swap1\n              tag_41\n              jump\t// in\n            tag_40:\n              mload(0x40)\n              dup1\n              swap2\n              sub\n              swap1\n              return\n                /* \"campaign.sol\":1040:1066  uint public approversCount */\n            tag_7:\n              callvalue\n              dup1\n              iszero\n              tag_42\n              jumpi\n              0x00\n              dup1\n              revert\n            tag_42:\n              pop\n              tag_43\n              tag_44\n              jump\t// in\n            tag_43:\n              mload(0x40)\n              tag_45\n              swap2\n              swap1\n              tag_46\n              jump\t// in\n            tag_45:\n              mload(0x40)\n              dup1\n              swap2\n              sub\n              swap1\n              return\n                /* \"campaign.sol\":2002:2400  function createRequest(string memory description, uint value, address recipient) public restricted {... */\n            tag_8:\n              callvalue\n              dup1\n              iszero\n              tag_47\n              jumpi\n              0x00\n              dup1\n              revert\n            tag_47:\n              pop\n              tag_48\n              0x04\n              dup1\n              calldatasize\n              sub\n              dup2\n              add\n              swap1\n              tag_49\n              swap2\n              swap1\n              tag_50\n              jump\t// in\n            tag_49:\n              tag_51\n              jump\t// in\n            tag_48:\n              stop\n                /* \"campaign.sol\":917:948  uint public minimumContribution */\n            tag_9:\n              callvalue\n              dup1\n              iszero\n              tag_52\n              jumpi\n              0x00\n              dup1\n              revert\n            tag_52:\n              pop\n              tag_53\n              tag_54\n              jump\t// in\n            tag_53:\n              mload(0x40)\n              tag_55\n              swap2\n              swap1\n              tag_46\n              jump\t// in\n            tag_55:\n              mload(0x40)\n              dup1\n              swap2\n              sub\n              swap1\n              return\n                /* \"campaign.sol\":1530:1965  function contribute() public payable {... */\n            tag_10:\n              tag_56\n              tag_57\n              jump\t// in\n            tag_56:\n              stop\n                /* \"campaign.sol\":2441:2696  function approveRequest(uint index) public {... */\n            tag_11:\n              callvalue\n              dup1\n              iszero\n              tag_58\n              jumpi\n              0x00\n              dup1\n              revert\n            tag_58:\n              pop\n              tag_59\n              0x04\n              dup1\n              calldatasize\n              sub\n              dup2\n              add\n              swap1\n              tag_60\n              swap2\n              swap1\n              tag_17\n              jump\t// in\n            tag_60:\n              tag_61\n              jump\t// in\n            tag_59:\n              stop\n                /* \"campaign.sol\":1178:1207  uint public requestsCount = 0 */\n            tag_12:\n              callvalue\n              dup1\n              iszero\n              tag_62\n              jumpi\n              0x00\n              dup1\n              revert\n            tag_62:\n              pop\n              tag_63\n              tag_64\n              jump\t// in\n            tag_63:\n              mload(0x40)\n              tag_65\n              swap2\n              swap1\n              tag_46\n              jump\t// in\n            tag_65:\n              mload(0x40)\n              dup1\n              swap2\n              sub\n              swap1\n              return\n                /* \"campaign.sol\":2752:2979  function finalizeRequest(uint index) public restricted {... */\n            tag_18:\n                /* \"campaign.sol\":1293:1300  manager */\n              0x00\n              dup1\n              sload\n              swap1\n              0x0100\n              exp\n              swap1\n              div\n              0xffffffffffffffffffffffffffffffffffffffff\n              and\n                /* \"campaign.sol\":1279:1300  msg.sender == manager */\n              0xffffffffffffffffffffffffffffffffffffffff\n              and\n                /* \"campaign.sol\":1279:1289  msg.sender */\n              caller\n                /* \"campaign.sol\":1279:1300  msg.sender == manager */\n              0xffffffffffffffffffffffffffffffffffffffff\n              and\n              eq\n                /* \"campaign.sol\":1271:1301  require(msg.sender == manager) */\n              tag_67\n              jumpi\n              0x00\n              dup1\n              revert\n            tag_67:\n                /* \"campaign.sol\":2817:2836  Request storage req */\n              0x00\n                /* \"campaign.sol\":2839:2847  requests */\n              0x05\n                /* \"campaign.sol\":2839:2854  requests[index] */\n              0x00\n                /* \"campaign.sol\":2848:2853  index */\n              dup4\n                /* \"campaign.sol\":2839:2854  requests[index] */\n              dup2\n              mstore\n              0x20\n              add\n              swap1\n              dup2\n              mstore\n              0x20\n              add\n              0x00\n              keccak256\n                /* \"campaign.sol\":2817:2854  Request storage req = requests[index] */\n              swap1\n              pop\n                /* \"campaign.sol\":2874:2877  req */\n              dup1\n                /* \"campaign.sol\":2874:2886  req.complete */\n              0x02\n              add\n              0x14\n              swap1\n              sload\n              swap1\n              0x0100\n              exp\n              swap1\n              div\n              0xff\n              and\n                /* \"campaign.sol\":2873:2886  !req.complete */\n              iszero\n                /* \"campaign.sol\":2865:2887  require(!req.complete) */\n              tag_69\n              jumpi\n              0x00\n              dup1\n              revert\n            tag_69:\n                /* \"campaign.sol\":2906:2909  req */\n              dup1\n                /* \"campaign.sol\":2906:2919  req.recipient */\n              0x02\n              add\n              0x00\n              swap1\n              sload\n              swap1\n              0x0100\n              exp\n              swap1\n              div\n              0xffffffffffffffffffffffffffffffffffffffff\n              and\n                /* \"campaign.sol\":2898:2929  payable(req.recipient).transfer */\n              0xffffffffffffffffffffffffffffffffffffffff\n              and\n                /* \"campaign.sol\":2898:2940  payable(req.recipient).transfer(req.value) */\n              0x08fc\n                /* \"campaign.sol\":2930:2933  req */\n              dup3\n                /* \"campaign.sol\":2930:2939  req.value */\n              0x01\n              add\n              sload\n                /* \"campaign.sol\":2898:2940  payable(req.recipient).transfer(req.value) */\n              swap1\n              dup2\n              iszero\n              mul\n              swap1\n              mload(0x40)\n              0x00\n              mload(0x40)\n              dup1\n              dup4\n              sub\n              dup2\n              dup6\n              dup9\n              dup9\n              call\n              swap4\n              pop\n              pop\n              pop\n              pop\n              iszero\n              dup1\n              iszero\n              tag_71\n              jumpi\n              returndatasize\n              0x00\n              dup1\n              returndatacopy\n              revert(0x00, returndatasize)\n            tag_71:\n              pop\n                /* \"campaign.sol\":2966:2970  true */\n              0x01\n                /* \"campaign.sol\":2951:2954  req */\n              dup2\n                /* \"campaign.sol\":2951:2963  req.complete */\n              0x02\n              add\n              0x14\n                /* \"campaign.sol\":2951:2970  req.complete = true */\n              0x0100\n              exp\n              dup2\n              sload\n              dup2\n              0xff\n              mul\n              not\n              and\n              swap1\n              dup4\n              iszero\n              iszero\n              mul\n              or\n              swap1\n              sstore\n              pop\n                /* \"campaign.sol\":2807:2979  {... */\n              pop\n                /* \"campaign.sol\":2752:2979  function finalizeRequest(uint index) public restricted {... */\n              pop\n              jump\t// out\n                /* \"campaign.sol\":981:1022  mapping(address => bool) public approvers */\n            tag_23:\n              mstore(0x20, 0x02)\n              dup1\n              0x00\n              mstore\n              keccak256(0x00, 0x40)\n              0x00\n              swap2\n              pop\n              sload\n              swap1\n              0x0100\n              exp\n              swap1\n              div\n              0xff\n              and\n              dup2\n              jump\t// out\n                /* \"campaign.sol\":2986:3237  function getSummary() public view returns (uint,uint,uint,uint,address) {... */\n            tag_28:\n                /* \"campaign.sol\":3029:3033  uint */\n              0x00\n                /* \"campaign.sol\":3034:3038  uint */\n              dup1\n                /* \"campaign.sol\":3039:3043  uint */\n              0x00\n                /* \"campaign.sol\":3044:3048  uint */\n              dup1\n                /* \"campaign.sol\":3049:3056  address */\n              0x00\n                /* \"campaign.sol\":3089:3108  minimumContribution */\n              sload(0x01)\n                /* \"campaign.sol\":3122:3143  address(this).balance */\n              selfbalance\n                /* \"campaign.sol\":3157:3170  requestsCount */\n              sload(0x06)\n                /* \"campaign.sol\":3184:3198  approversCount */\n              sload(0x03)\n                /* \"campaign.sol\":3212:3219  manager */\n              0x00\n              dup1\n              sload\n              swap1\n              0x0100\n              exp\n              swap1\n              div\n              0xffffffffffffffffffffffffffffffffffffffff\n              and\n                /* \"campaign.sol\":3068:3230  return (... */\n              swap5\n              pop\n              swap5\n              pop\n              swap5\n              pop\n              swap5\n              pop\n              swap5\n              pop\n                /* \"campaign.sol\":2986:3237  function getSummary() public view returns (uint,uint,uint,uint,address) {... */\n              swap1\n              swap2\n              swap3\n              swap4\n              swap5\n              jump\t// out\n                /* \"campaign.sol\":870:892  address public manager */\n            tag_33:\n              0x00\n              dup1\n              sload\n              swap1\n              0x0100\n              exp\n              swap1\n              div\n              0xffffffffffffffffffffffffffffffffffffffff\n              and\n              dup2\n              jump\t// out\n                /* \"campaign.sol\":1115:1155  mapping(uint => Request) public requests */\n            tag_39:\n              mstore(0x20, 0x05)\n              dup1\n              0x00\n              mstore\n              keccak256(0x00, 0x40)\n              0x00\n              swap2\n              pop\n              swap1\n              pop\n              dup1\n              0x00\n              add\n              dup1\n              sload\n              tag_73\n              swap1\n              tag_74\n              jump\t// in\n            tag_73:\n              dup1\n              0x1f\n              add\n              0x20\n              dup1\n              swap2\n              div\n              mul\n              0x20\n              add\n              mload(0x40)\n              swap1\n              dup2\n              add\n              0x40\n              mstore\n              dup1\n              swap3\n              swap2\n              swap1\n              dup2\n              dup2\n              mstore\n              0x20\n              add\n              dup3\n              dup1\n              sload\n              tag_75\n              swap1\n              tag_74\n              jump\t// in\n            tag_75:\n              dup1\n              iszero\n              tag_76\n              jumpi\n              dup1\n              0x1f\n              lt\n              tag_77\n              jumpi\n              0x0100\n              dup1\n              dup4\n              sload\n              div\n              mul\n              dup4\n              mstore\n              swap2\n              0x20\n              add\n              swap2\n              jump(tag_76)\n            tag_77:\n              dup3\n              add\n              swap2\n              swap1\n              0x00\n              mstore\n              keccak256(0x00, 0x20)\n              swap1\n            tag_78:\n              dup2\n              sload\n              dup2\n              mstore\n              swap1\n              0x01\n              add\n              swap1\n              0x20\n              add\n              dup1\n              dup4\n              gt\n              tag_78\n              jumpi\n              dup3\n              swap1\n              sub\n              0x1f\n              and\n              dup3\n              add\n              swap2\n            tag_76:\n              pop\n              pop\n              pop\n              pop\n              pop\n              swap1\n              dup1\n              0x01\n              add\n              sload\n              swap1\n              dup1\n              0x02\n              add\n              0x00\n              swap1\n              sload\n              swap1\n              0x0100\n              exp\n              swap1\n              div\n              0xffffffffffffffffffffffffffffffffffffffff\n              and\n              swap1\n              dup1\n              0x02\n              add\n              0x14\n              swap1\n              sload\n              swap1\n              0x0100\n              exp\n              swap1\n              div\n              0xff\n              and\n              swap1\n              dup1\n              0x03\n              add\n              sload\n              swap1\n              pop\n              dup6\n              jump\t// out\n                /* \"campaign.sol\":1040:1066  uint public approversCount */\n            tag_44:\n              sload(0x03)\n              dup2\n              jump\t// out\n                /* \"campaign.sol\":2002:2400  function createRequest(string memory description, uint value, address recipient) public restricted {... */\n            tag_51:\n                /* \"campaign.sol\":1293:1300  manager */\n              0x00\n              dup1\n              sload\n              swap1\n              0x0100\n              exp\n              swap1\n              div\n              0xffffffffffffffffffffffffffffffffffffffff\n              and\n                /* \"campaign.sol\":1279:1300  msg.sender == manager */\n              0xffffffffffffffffffffffffffffffffffffffff\n              and\n                /* \"campaign.sol\":1279:1289  msg.sender */\n              caller\n                /* \"campaign.sol\":1279:1300  msg.sender == manager */\n              0xffffffffffffffffffffffffffffffffffffffff\n              and\n              eq\n                /* \"campaign.sol\":1271:1301  require(msg.sender == manager) */\n              tag_80\n              jumpi\n              0x00\n              dup1\n              revert\n            tag_80:\n                /* \"campaign.sol\":2128:2149  address(this).balance */\n              selfbalance\n                /* \"campaign.sol\":2119:2124  value */\n              dup3\n                /* \"campaign.sol\":2119:2149  value <= address(this).balance */\n              gt\n              iszero\n                /* \"campaign.sol\":2111:2150  require(value <= address(this).balance) */\n              tag_82\n              jumpi\n              0x00\n              dup1\n              revert\n            tag_82:\n                /* \"campaign.sol\":2160:2182  Request storage newReq */\n              0x00\n                /* \"campaign.sol\":2185:2193  requests */\n              0x05\n                /* \"campaign.sol\":2185:2203  requests[reqIndex] */\n              0x00\n                /* \"campaign.sol\":2194:2202  reqIndex */\n              sload(0x04)\n                /* \"campaign.sol\":2185:2203  requests[reqIndex] */\n              dup2\n              mstore\n              0x20\n              add\n              swap1\n              dup2\n              mstore\n              0x20\n              add\n              0x00\n              keccak256\n                /* \"campaign.sol\":2160:2203  Request storage newReq = requests[reqIndex] */\n              swap1\n              pop\n                /* \"campaign.sol\":2235:2246  description */\n              dup4\n                /* \"campaign.sol\":2214:2220  newReq */\n              dup2\n                /* \"campaign.sol\":2214:2232  newReq.description */\n              0x00\n              add\n                /* \"campaign.sol\":2214:2246  newReq.description = description */\n              swap1\n              dup1\n              mload\n              swap1\n              0x20\n              add\n              swap1\n              tag_83\n              swap3\n              swap2\n              swap1\n              tag_84\n              jump\t// in\n            tag_83:\n              pop\n                /* \"campaign.sol\":2271:2276  value */\n              dup3\n                /* \"campaign.sol\":2256:2262  newReq */\n              dup2\n                /* \"campaign.sol\":2256:2268  newReq.value */\n              0x01\n              add\n                /* \"campaign.sol\":2256:2276  newReq.value = value */\n              dup2\n              swap1\n              sstore\n              pop\n                /* \"campaign.sol\":2305:2314  recipient */\n              dup2\n                /* \"campaign.sol\":2286:2292  newReq */\n              dup2\n                /* \"campaign.sol\":2286:2302  newReq.recipient */\n              0x02\n              add\n              0x00\n                /* \"campaign.sol\":2286:2314  newReq.recipient = recipient */\n              0x0100\n              exp\n              dup2\n              sload\n              dup2\n              0xffffffffffffffffffffffffffffffffffffffff\n              mul\n              not\n              and\n              swap1\n              dup4\n              0xffffffffffffffffffffffffffffffffffffffff\n              and\n              mul\n              or\n              swap1\n              sstore\n              pop\n                /* \"campaign.sol\":2342:2347  false */\n              0x00\n                /* \"campaign.sol\":2324:2330  newReq */\n              dup2\n                /* \"campaign.sol\":2324:2339  newReq.complete */\n              0x02\n              add\n              0x14\n                /* \"campaign.sol\":2324:2347  newReq.complete = false */\n              0x0100\n              exp\n              dup2\n              sload\n              dup2\n              0xff\n              mul\n              not\n              and\n              swap1\n              dup4\n              iszero\n              iszero\n              mul\n              or\n              swap1\n              sstore\n              pop\n                /* \"campaign.sol\":2358:2366  reqIndex */\n              0x04\n              0x00\n                /* \"campaign.sol\":2358:2368  reqIndex++ */\n              dup2\n              sload\n              dup1\n              swap3\n              swap2\n              swap1\n              tag_85\n              swap1\n              tag_86\n              jump\t// in\n            tag_85:\n              swap2\n              swap1\n              pop\n              sstore\n              pop\n                /* \"campaign.sol\":2378:2391  requestsCount */\n              0x06\n              0x00\n                /* \"campaign.sol\":2378:2393  requestsCount++ */\n              dup2\n              sload\n              dup1\n              swap3\n              swap2\n              swap1\n              tag_87\n              swap1\n              tag_86\n              jump\t// in\n            tag_87:\n              swap2\n              swap1\n              pop\n              sstore\n              pop\n                /* \"campaign.sol\":2101:2400  {... */\n              pop\n                /* \"campaign.sol\":2002:2400  function createRequest(string memory description, uint value, address recipient) public restricted {... */\n              pop\n              pop\n              pop\n              jump\t// out\n                /* \"campaign.sol\":917:948  uint public minimumContribution */\n            tag_54:\n              sload(0x01)\n              dup2\n              jump\t// out\n                /* \"campaign.sol\":1530:1965  function contribute() public payable {... */\n            tag_57:\n                /* \"campaign.sol\":1597:1616  minimumContribution */\n              sload(0x01)\n                /* \"campaign.sol\":1585:1594  msg.value */\n              callvalue\n                /* \"campaign.sol\":1585:1616  msg.value > minimumContribution */\n              gt\n                /* \"campaign.sol\":1577:1617  require(msg.value > minimumContribution) */\n              tag_89\n              jumpi\n              0x00\n              dup1\n              revert\n            tag_89:\n                /* \"campaign.sol\":1679:1693  bool isExisted */\n              0x00\n                /* \"campaign.sol\":1696:1705  approvers */\n              0x02\n                /* \"campaign.sol\":1696:1717  approvers[msg.sender] */\n              0x00\n                /* \"campaign.sol\":1706:1716  msg.sender */\n              caller\n                /* \"campaign.sol\":1696:1717  approvers[msg.sender] */\n              0xffffffffffffffffffffffffffffffffffffffff\n              and\n              0xffffffffffffffffffffffffffffffffffffffff\n              and\n              dup2\n              mstore\n              0x20\n              add\n              swap1\n              dup2\n              mstore\n              0x20\n              add\n              0x00\n              keccak256\n              0x00\n              swap1\n              sload\n              swap1\n              0x0100\n              exp\n              swap1\n              div\n              0xff\n              and\n                /* \"campaign.sol\":1679:1717  bool isExisted = approvers[msg.sender] */\n              swap1\n              pop\n                /* \"campaign.sol\":1805:1814  isExisted */\n              dup1\n                /* \"campaign.sol\":1800:1958  if (!isExisted) {... */\n              tag_90\n              jumpi\n                /* \"campaign.sol\":1854:1858  true */\n              0x01\n                /* \"campaign.sol\":1830:1839  approvers */\n              0x02\n                /* \"campaign.sol\":1830:1851  approvers[msg.sender] */\n              0x00\n                /* \"campaign.sol\":1840:1850  msg.sender */\n              caller\n                /* \"campaign.sol\":1830:1851  approvers[msg.sender] */\n              0xffffffffffffffffffffffffffffffffffffffff\n              and\n              0xffffffffffffffffffffffffffffffffffffffff\n              and\n              dup2\n              mstore\n              0x20\n              add\n              swap1\n              dup2\n              mstore\n              0x20\n              add\n              0x00\n              keccak256\n              0x00\n                /* \"campaign.sol\":1830:1858  approvers[msg.sender] = true */\n              0x0100\n              exp\n              dup2\n              sload\n              dup2\n              0xff\n              mul\n              not\n              and\n              swap1\n              dup4\n              iszero\n              iszero\n              mul\n              or\n              swap1\n              sstore\n              pop\n                /* \"campaign.sol\":1931:1945  approversCount */\n              0x03\n              0x00\n                /* \"campaign.sol\":1931:1947  approversCount++ */\n              dup2\n              sload\n              dup1\n              swap3\n              swap2\n              swap1\n              tag_91\n              swap1\n              tag_86\n              jump\t// in\n            tag_91:\n              swap2\n              swap1\n              pop\n              sstore\n              pop\n                /* \"campaign.sol\":1800:1958  if (!isExisted) {... */\n            tag_90:\n                /* \"campaign.sol\":1567:1965  {... */\n              pop\n                /* \"campaign.sol\":1530:1965  function contribute() public payable {... */\n              jump\t// out\n                /* \"campaign.sol\":2441:2696  function approveRequest(uint index) public {... */\n            tag_61:\n                /* \"campaign.sol\":2494:2513  Request storage req */\n              0x00\n                /* \"campaign.sol\":2516:2524  requests */\n              0x05\n                /* \"campaign.sol\":2516:2531  requests[index] */\n              0x00\n                /* \"campaign.sol\":2525:2530  index */\n              dup4\n                /* \"campaign.sol\":2516:2531  requests[index] */\n              dup2\n              mstore\n              0x20\n              add\n              swap1\n              dup2\n              mstore\n              0x20\n              add\n              0x00\n              keccak256\n                /* \"campaign.sol\":2494:2531  Request storage req = requests[index] */\n              swap1\n              pop\n                /* \"campaign.sol\":2550:2559  approvers */\n              0x02\n                /* \"campaign.sol\":2550:2571  approvers[msg.sender] */\n              0x00\n                /* \"campaign.sol\":2560:2570  msg.sender */\n              caller\n                /* \"campaign.sol\":2550:2571  approvers[msg.sender] */\n              0xffffffffffffffffffffffffffffffffffffffff\n              and\n              0xffffffffffffffffffffffffffffffffffffffff\n              and\n              dup2\n              mstore\n              0x20\n              add\n              swap1\n              dup2\n              mstore\n              0x20\n              add\n              0x00\n              keccak256\n              0x00\n              swap1\n              sload\n              swap1\n              0x0100\n              exp\n              swap1\n              div\n              0xff\n              and\n                /* \"campaign.sol\":2542:2572  require(approvers[msg.sender]) */\n              tag_93\n              jumpi\n              0x00\n              dup1\n              revert\n            tag_93:\n                /* \"campaign.sol\":2591:2594  req */\n              dup1\n                /* \"campaign.sol\":2591:2604  req.approvals */\n              0x04\n              add\n                /* \"campaign.sol\":2591:2616  req.approvals[msg.sender] */\n              0x00\n                /* \"campaign.sol\":2605:2615  msg.sender */\n              caller\n                /* \"campaign.sol\":2591:2616  req.approvals[msg.sender] */\n              0xffffffffffffffffffffffffffffffffffffffff\n              and\n              0xffffffffffffffffffffffffffffffffffffffff\n              and\n              dup2\n              mstore\n              0x20\n              add\n              swap1\n              dup2\n              mstore\n              0x20\n              add\n              0x00\n              keccak256\n              0x00\n              swap1\n              sload\n              swap1\n              0x0100\n              exp\n              swap1\n              div\n              0xff\n              and\n                /* \"campaign.sol\":2590:2616  !req.approvals[msg.sender] */\n              iszero\n                /* \"campaign.sol\":2582:2617  require(!req.approvals[msg.sender]) */\n              tag_94\n              jumpi\n              0x00\n              dup1\n              revert\n            tag_94:\n                /* \"campaign.sol\":2656:2660  true */\n              0x01\n                /* \"campaign.sol\":2628:2631  req */\n              dup2\n                /* \"campaign.sol\":2628:2641  req.approvals */\n              0x04\n              add\n                /* \"campaign.sol\":2628:2653  req.approvals[msg.sender] */\n              0x00\n                /* \"campaign.sol\":2642:2652  msg.sender */\n              caller\n                /* \"campaign.sol\":2628:2653  req.approvals[msg.sender] */\n              0xffffffffffffffffffffffffffffffffffffffff\n              and\n              0xffffffffffffffffffffffffffffffffffffffff\n              and\n              dup2\n              mstore\n              0x20\n              add\n              swap1\n              dup2\n              mstore\n              0x20\n              add\n              0x00\n              keccak256\n              0x00\n                /* \"campaign.sol\":2628:2660  req.approvals[msg.sender] = true */\n              0x0100\n              exp\n              dup2\n              sload\n              dup2\n              0xff\n              mul\n              not\n              and\n              swap1\n              dup4\n              iszero\n              iszero\n              mul\n              or\n              swap1\n              sstore\n              pop\n                /* \"campaign.sol\":2670:2673  req */\n              dup1\n                /* \"campaign.sol\":2670:2687  req.approvalCount */\n              0x03\n              add\n              0x00\n                /* \"campaign.sol\":2670:2689  req.approvalCount++ */\n              dup2\n              sload\n              dup1\n              swap3\n              swap2\n              swap1\n              tag_95\n              swap1\n              tag_86\n              jump\t// in\n            tag_95:\n              swap2\n              swap1\n              pop\n              sstore\n              pop\n                /* \"campaign.sol\":2484:2696  {... */\n              pop\n                /* \"campaign.sol\":2441:2696  function approveRequest(uint index) public {... */\n              pop\n              jump\t// out\n                /* \"campaign.sol\":1178:1207  uint public requestsCount = 0 */\n            tag_64:\n              sload(0x06)\n              dup2\n              jump\t// out\n            tag_84:\n              dup3\n              dup1\n              sload\n              tag_96\n              swap1\n              tag_74\n              jump\t// in\n            tag_96:\n              swap1\n              0x00\n              mstore\n              keccak256(0x00, 0x20)\n              swap1\n              0x1f\n              add\n              0x20\n              swap1\n              div\n              dup2\n              add\n              swap3\n              dup3\n              tag_98\n              jumpi\n              0x00\n              dup6\n              sstore\n              jump(tag_97)\n            tag_98:\n              dup3\n              0x1f\n              lt\n              tag_99\n              jumpi\n              dup1\n              mload\n              not(0xff)\n              and\n              dup4\n              dup1\n              add\n              or\n              dup6\n              sstore\n              jump(tag_97)\n            tag_99:\n              dup3\n              dup1\n              add\n              0x01\n              add\n              dup6\n              sstore\n              dup3\n              iszero\n              tag_97\n              jumpi\n              swap2\n              dup3\n              add\n            tag_100:\n              dup3\n              dup2\n              gt\n              iszero\n              tag_101\n              jumpi\n              dup3\n              mload\n              dup3\n              sstore\n              swap2\n              0x20\n              add\n              swap2\n              swap1\n              0x01\n              add\n              swap1\n              jump(tag_100)\n            tag_101:\n            tag_97:\n              pop\n              swap1\n              pop\n              tag_102\n              swap2\n              swap1\n              tag_103\n              jump\t// in\n            tag_102:\n              pop\n              swap1\n              jump\t// out\n            tag_103:\n            tag_104:\n              dup1\n              dup3\n              gt\n              iszero\n              tag_105\n              jumpi\n              0x00\n              dup2\n              0x00\n              swap1\n              sstore\n              pop\n              0x01\n              add\n              jump(tag_104)\n            tag_105:\n              pop\n              swap1\n              jump\t// out\n                /* \"#utility.yul\":7:82   */\n            tag_106:\n                /* \"#utility.yul\":40:46   */\n              0x00\n                /* \"#utility.yul\":73:75   */\n              0x40\n                /* \"#utility.yul\":67:76   */\n              mload\n                /* \"#utility.yul\":57:76   */\n              swap1\n              pop\n                /* \"#utility.yul\":7:82   */\n              swap1\n              jump\t// out\n                /* \"#utility.yul\":88:205   */\n            tag_107:\n                /* \"#utility.yul\":197:198   */\n              0x00\n                /* \"#utility.yul\":194:195   */\n              dup1\n                /* \"#utility.yul\":187:199   */\n              revert\n                /* \"#utility.yul\":211:328   */\n            tag_108:\n                /* \"#utility.yul\":320:321   */\n              0x00\n                /* \"#utility.yul\":317:318   */\n              dup1\n                /* \"#utility.yul\":310:322   */\n              revert\n                /* \"#utility.yul\":334:411   */\n            tag_109:\n                /* \"#utility.yul\":371:378   */\n              0x00\n                /* \"#utility.yul\":400:405   */\n              dup2\n                /* \"#utility.yul\":389:405   */\n              swap1\n              pop\n                /* \"#utility.yul\":334:411   */\n              swap2\n              swap1\n              pop\n              jump\t// out\n                /* \"#utility.yul\":417:539   */\n            tag_110:\n                /* \"#utility.yul\":490:514   */\n              tag_142\n                /* \"#utility.yul\":508:513   */\n              dup2\n                /* \"#utility.yul\":490:514   */\n              tag_109\n              jump\t// in\n            tag_142:\n                /* \"#utility.yul\":483:488   */\n              dup2\n                /* \"#utility.yul\":480:515   */\n              eq\n                /* \"#utility.yul\":470:533   */\n              tag_143\n              jumpi\n                /* \"#utility.yul\":529:530   */\n              0x00\n                /* \"#utility.yul\":526:527   */\n              dup1\n                /* \"#utility.yul\":519:531   */\n              revert\n                /* \"#utility.yul\":470:533   */\n            tag_143:\n                /* \"#utility.yul\":417:539   */\n              pop\n              jump\t// out\n                /* \"#utility.yul\":545:684   */\n            tag_111:\n                /* \"#utility.yul\":591:596   */\n              0x00\n                /* \"#utility.yul\":629:635   */\n              dup2\n                /* \"#utility.yul\":616:636   */\n              calldataload\n                /* \"#utility.yul\":607:636   */\n              swap1\n              pop\n                /* \"#utility.yul\":645:678   */\n              tag_145\n                /* \"#utility.yul\":672:677   */\n              dup2\n                /* \"#utility.yul\":645:678   */\n              tag_110\n              jump\t// in\n            tag_145:\n                /* \"#utility.yul\":545:684   */\n              swap3\n              swap2\n              pop\n              pop\n              jump\t// out\n                /* \"#utility.yul\":690:1019   */\n            tag_17:\n                /* \"#utility.yul\":749:755   */\n              0x00\n                /* \"#utility.yul\":798:800   */\n              0x20\n                /* \"#utility.yul\":786:795   */\n              dup3\n                /* \"#utility.yul\":777:784   */\n              dup5\n                /* \"#utility.yul\":773:796   */\n              sub\n                /* \"#utility.yul\":769:801   */\n              slt\n                /* \"#utility.yul\":766:885   */\n              iszero\n              tag_147\n              jumpi\n                /* \"#utility.yul\":804:883   */\n              tag_148\n              tag_107\n              jump\t// in\n            tag_148:\n                /* \"#utility.yul\":766:885   */\n            tag_147:\n                /* \"#utility.yul\":924:925   */\n              0x00\n                /* \"#utility.yul\":949:1002   */\n              tag_149\n                /* \"#utility.yul\":994:1001   */\n              dup5\n                /* \"#utility.yul\":985:991   */\n              dup3\n                /* \"#utility.yul\":974:983   */\n              dup6\n                /* \"#utility.yul\":970:992   */\n              add\n                /* \"#utility.yul\":949:1002   */\n              tag_111\n              jump\t// in\n            tag_149:\n                /* \"#utility.yul\":939:1002   */\n              swap2\n              pop\n                /* \"#utility.yul\":895:1012   */\n              pop\n                /* \"#utility.yul\":690:1019   */\n              swap3\n              swap2\n              pop\n              pop\n              jump\t// out\n                /* \"#utility.yul\":1025:1151   */\n            tag_112:\n                /* \"#utility.yul\":1062:1069   */\n              0x00\n                /* \"#utility.yul\":1102:1144   */\n              0xffffffffffffffffffffffffffffffffffffffff\n                /* \"#utility.yul\":1095:1100   */\n              dup3\n                /* \"#utility.yul\":1091:1145   */\n              and\n                /* \"#utility.yul\":1080:1145   */\n              swap1\n              pop\n                /* \"#utility.yul\":1025:1151   */\n              swap2\n              swap1\n              pop\n              jump\t// out\n                /* \"#utility.yul\":1157:1253   */\n            tag_113:\n                /* \"#utility.yul\":1194:1201   */\n              0x00\n                /* \"#utility.yul\":1223:1247   */\n              tag_152\n                /* \"#utility.yul\":1241:1246   */\n              dup3\n                /* \"#utility.yul\":1223:1247   */\n              tag_112\n              jump\t// in\n            tag_152:\n                /* \"#utility.yul\":1212:1247   */\n              swap1\n              pop\n                /* \"#utility.yul\":1157:1253   */\n              swap2\n              swap1\n              pop\n              jump\t// out\n                /* \"#utility.yul\":1259:1381   */\n            tag_114:\n                /* \"#utility.yul\":1332:1356   */\n              tag_154\n                /* \"#utility.yul\":1350:1355   */\n              dup2\n                /* \"#utility.yul\":1332:1356   */\n              tag_113\n              jump\t// in\n            tag_154:\n                /* \"#utility.yul\":1325:1330   */\n              dup2\n                /* \"#utility.yul\":1322:1357   */\n              eq\n                /* \"#utility.yul\":1312:1375   */\n              tag_155\n              jumpi\n                /* \"#utility.yul\":1371:1372   */\n              0x00\n                /* \"#utility.yul\":1368:1369   */\n              dup1\n                /* \"#utility.yul\":1361:1373   */\n              revert\n                /* \"#utility.yul\":1312:1375   */\n            tag_155:\n                /* \"#utility.yul\":1259:1381   */\n              pop\n              jump\t// out\n                /* \"#utility.yul\":1387:1526   */\n            tag_115:\n                /* \"#utility.yul\":1433:1438   */\n              0x00\n                /* \"#utility.yul\":1471:1477   */\n              dup2\n                /* \"#utility.yul\":1458:1478   */\n              calldataload\n                /* \"#utility.yul\":1449:1478   */\n              swap1\n              pop\n                /* \"#utility.yul\":1487:1520   */\n              tag_157\n                /* \"#utility.yul\":1514:1519   */\n              dup2\n                /* \"#utility.yul\":1487:1520   */\n              tag_114\n              jump\t// in\n            tag_157:\n                /* \"#utility.yul\":1387:1526   */\n              swap3\n              swap2\n              pop\n              pop\n              jump\t// out\n                /* \"#utility.yul\":1532:1861   */\n            tag_22:\n                /* \"#utility.yul\":1591:1597   */\n              0x00\n                /* \"#utility.yul\":1640:1642   */\n              0x20\n                /* \"#utility.yul\":1628:1637   */\n              dup3\n                /* \"#utility.yul\":1619:1626   */\n              dup5\n                /* \"#utility.yul\":1615:1638   */\n              sub\n                /* \"#utility.yul\":1611:1643   */\n              slt\n                /* \"#utility.yul\":1608:1727   */\n              iszero\n              tag_159\n              jumpi\n                /* \"#utility.yul\":1646:1725   */\n              tag_160\n              tag_107\n              jump\t// in\n            tag_160:\n                /* \"#utility.yul\":1608:1727   */\n            tag_159:\n                /* \"#utility.yul\":1766:1767   */\n              0x00\n                /* \"#utility.yul\":1791:1844   */\n              tag_161\n                /* \"#utility.yul\":1836:1843   */\n              dup5\n                /* \"#utility.yul\":1827:1833   */\n              dup3\n                /* \"#utility.yul\":1816:1825   */\n              dup6\n                /* \"#utility.yul\":1812:1834   */\n              add\n                /* \"#utility.yul\":1791:1844   */\n              tag_115\n              jump\t// in\n            tag_161:\n                /* \"#utility.yul\":1781:1844   */\n              swap2\n              pop\n                /* \"#utility.yul\":1737:1854   */\n              pop\n                /* \"#utility.yul\":1532:1861   */\n              swap3\n              swap2\n              pop\n              pop\n              jump\t// out\n                /* \"#utility.yul\":1867:1957   */\n            tag_116:\n                /* \"#utility.yul\":1901:1908   */\n              0x00\n                /* \"#utility.yul\":1944:1949   */\n              dup2\n                /* \"#utility.yul\":1937:1950   */\n              iszero\n                /* \"#utility.yul\":1930:1951   */\n              iszero\n                /* \"#utility.yul\":1919:1951   */\n              swap1\n              pop\n                /* \"#utility.yul\":1867:1957   */\n              swap2\n              swap1\n              pop\n              jump\t// out\n                /* \"#utility.yul\":1963:2072   */\n            tag_117:\n                /* \"#utility.yul\":2044:2065   */\n              tag_164\n                /* \"#utility.yul\":2059:2064   */\n              dup2\n                /* \"#utility.yul\":2044:2065   */\n              tag_116\n              jump\t// in\n            tag_164:\n                /* \"#utility.yul\":2039:2042   */\n              dup3\n                /* \"#utility.yul\":2032:2066   */\n              mstore\n                /* \"#utility.yul\":1963:2072   */\n              pop\n              pop\n              jump\t// out\n                /* \"#utility.yul\":2078:2288   */\n            tag_25:\n                /* \"#utility.yul\":2165:2169   */\n              0x00\n                /* \"#utility.yul\":2203:2205   */\n              0x20\n                /* \"#utility.yul\":2192:2201   */\n              dup3\n                /* \"#utility.yul\":2188:2206   */\n              add\n                /* \"#utility.yul\":2180:2206   */\n              swap1\n              pop\n                /* \"#utility.yul\":2216:2281   */\n              tag_166\n                /* \"#utility.yul\":2278:2279   */\n              0x00\n                /* \"#utility.yul\":2267:2276   */\n              dup4\n                /* \"#utility.yul\":2263:2280   */\n              add\n                /* \"#utility.yul\":2254:2260   */\n              dup5\n                /* \"#utility.yul\":2216:2281   */\n              tag_117\n              jump\t// in\n            tag_166:\n                /* \"#utility.yul\":2078:2288   */\n              swap3\n              swap2\n              pop\n              pop\n              jump\t// out\n                /* \"#utility.yul\":2294:2412   */\n            tag_118:\n                /* \"#utility.yul\":2381:2405   */\n              tag_168\n                /* \"#utility.yul\":2399:2404   */\n              dup2\n                /* \"#utility.yul\":2381:2405   */\n              tag_109\n              jump\t// in\n            tag_168:\n                /* \"#utility.yul\":2376:2379   */\n              dup3\n                /* \"#utility.yul\":2369:2406   */\n              mstore\n                /* \"#utility.yul\":2294:2412   */\n              pop\n              pop\n              jump\t// out\n                /* \"#utility.yul\":2418:2536   */\n            tag_119:\n                /* \"#utility.yul\":2505:2529   */\n              tag_170\n                /* \"#utility.yul\":2523:2528   */\n              dup2\n                /* \"#utility.yul\":2505:2529   */\n              tag_113\n              jump\t// in\n            tag_170:\n                /* \"#utility.yul\":2500:2503   */\n              dup3\n                /* \"#utility.yul\":2493:2530   */\n              mstore\n                /* \"#utility.yul\":2418:2536   */\n              pop\n              pop\n              jump\t// out\n                /* \"#utility.yul\":2542:3206   */\n            tag_30:\n                /* \"#utility.yul\":2747:2751   */\n              0x00\n                /* \"#utility.yul\":2785:2788   */\n              0xa0\n                /* \"#utility.yul\":2774:2783   */\n              dup3\n                /* \"#utility.yul\":2770:2789   */\n              add\n                /* \"#utility.yul\":2762:2789   */\n              swap1\n              pop\n                /* \"#utility.yul\":2799:2870   */\n              tag_172\n                /* \"#utility.yul\":2867:2868   */\n              0x00\n                /* \"#utility.yul\":2856:2865   */\n              dup4\n                /* \"#utility.yul\":2852:2869   */\n              add\n                /* \"#utility.yul\":2843:2849   */\n              dup9\n                /* \"#utility.yul\":2799:2870   */\n              tag_118\n              jump\t// in\n            tag_172:\n                /* \"#utility.yul\":2880:2952   */\n              tag_173\n                /* \"#utility.yul\":2948:2950   */\n              0x20\n                /* \"#utility.yul\":2937:2946   */\n              dup4\n                /* \"#utility.yul\":2933:2951   */\n              add\n                /* \"#utility.yul\":2924:2930   */\n              dup8\n                /* \"#utility.yul\":2880:2952   */\n              tag_118\n              jump\t// in\n            tag_173:\n                /* \"#utility.yul\":2962:3034   */\n              tag_174\n                /* \"#utility.yul\":3030:3032   */\n              0x40\n                /* \"#utility.yul\":3019:3028   */\n              dup4\n                /* \"#utility.yul\":3015:3033   */\n              add\n                /* \"#utility.yul\":3006:3012   */\n              dup7\n                /* \"#utility.yul\":2962:3034   */\n              tag_118\n              jump\t// in\n            tag_174:\n                /* \"#utility.yul\":3044:3116   */\n              tag_175\n                /* \"#utility.yul\":3112:3114   */\n              0x60\n                /* \"#utility.yul\":3101:3110   */\n              dup4\n                /* \"#utility.yul\":3097:3115   */\n              add\n                /* \"#utility.yul\":3088:3094   */\n              dup6\n                /* \"#utility.yul\":3044:3116   */\n              tag_118\n              jump\t// in\n            tag_175:\n                /* \"#utility.yul\":3126:3199   */\n              tag_176\n                /* \"#utility.yul\":3194:3197   */\n              0x80\n                /* \"#utility.yul\":3183:3192   */\n              dup4\n                /* \"#utility.yul\":3179:3198   */\n              add\n                /* \"#utility.yul\":3170:3176   */\n              dup5\n                /* \"#utility.yul\":3126:3199   */\n              tag_119\n              jump\t// in\n            tag_176:\n                /* \"#utility.yul\":2542:3206   */\n              swap7\n              swap6\n              pop\n              pop\n              pop\n              pop\n              pop\n              pop\n              jump\t// out\n                /* \"#utility.yul\":3212:3434   */\n            tag_35:\n                /* \"#utility.yul\":3305:3309   */\n              0x00\n                /* \"#utility.yul\":3343:3345   */\n              0x20\n                /* \"#utility.yul\":3332:3341   */\n              dup3\n                /* \"#utility.yul\":3328:3346   */\n              add\n                /* \"#utility.yul\":3320:3346   */\n              swap1\n              pop\n                /* \"#utility.yul\":3356:3427   */\n              tag_178\n                /* \"#utility.yul\":3424:3425   */\n              0x00\n                /* \"#utility.yul\":3413:3422   */\n              dup4\n                /* \"#utility.yul\":3409:3426   */\n              add\n                /* \"#utility.yul\":3400:3406   */\n              dup5\n                /* \"#utility.yul\":3356:3427   */\n              tag_119\n              jump\t// in\n            tag_178:\n                /* \"#utility.yul\":3212:3434   */\n              swap3\n              swap2\n              pop\n              pop\n              jump\t// out\n                /* \"#utility.yul\":3440:3539   */\n            tag_120:\n                /* \"#utility.yul\":3492:3498   */\n              0x00\n                /* \"#utility.yul\":3526:3531   */\n              dup2\n                /* \"#utility.yul\":3520:3532   */\n              mload\n                /* \"#utility.yul\":3510:3532   */\n              swap1\n              pop\n                /* \"#utility.yul\":3440:3539   */\n              swap2\n              swap1\n              pop\n              jump\t// out\n                /* \"#utility.yul\":3545:3714   */\n            tag_121:\n                /* \"#utility.yul\":3629:3640   */\n              0x00\n                /* \"#utility.yul\":3663:3669   */\n              dup3\n                /* \"#utility.yul\":3658:3661   */\n              dup3\n                /* \"#utility.yul\":3651:3670   */\n              mstore\n                /* \"#utility.yul\":3703:3707   */\n              0x20\n                /* \"#utility.yul\":3698:3701   */\n              dup3\n                /* \"#utility.yul\":3694:3708   */\n              add\n                /* \"#utility.yul\":3679:3708   */\n              swap1\n              pop\n                /* \"#utility.yul\":3545:3714   */\n              swap3\n              swap2\n              pop\n              pop\n              jump\t// out\n                /* \"#utility.yul\":3720:4027   */\n            tag_122:\n                /* \"#utility.yul\":3788:3789   */\n              0x00\n                /* \"#utility.yul\":3798:3911   */\n            tag_182:\n                /* \"#utility.yul\":3812:3818   */\n              dup4\n                /* \"#utility.yul\":3809:3810   */\n              dup2\n                /* \"#utility.yul\":3806:3819   */\n              lt\n                /* \"#utility.yul\":3798:3911   */\n              iszero\n              tag_184\n              jumpi\n                /* \"#utility.yul\":3897:3898   */\n              dup1\n                /* \"#utility.yul\":3892:3895   */\n              dup3\n                /* \"#utility.yul\":3888:3899   */\n              add\n                /* \"#utility.yul\":3882:3900   */\n              mload\n                /* \"#utility.yul\":3878:3879   */\n              dup2\n                /* \"#utility.yul\":3873:3876   */\n              dup5\n                /* \"#utility.yul\":3869:3880   */\n              add\n                /* \"#utility.yul\":3862:3901   */\n              mstore\n                /* \"#utility.yul\":3834:3836   */\n              0x20\n                /* \"#utility.yul\":3831:3832   */\n              dup2\n                /* \"#utility.yul\":3827:3837   */\n              add\n                /* \"#utility.yul\":3822:3837   */\n              swap1\n              pop\n                /* \"#utility.yul\":3798:3911   */\n              jump(tag_182)\n            tag_184:\n                /* \"#utility.yul\":3929:3935   */\n              dup4\n                /* \"#utility.yul\":3926:3927   */\n              dup2\n                /* \"#utility.yul\":3923:3936   */\n              gt\n                /* \"#utility.yul\":3920:4021   */\n              iszero\n              tag_185\n              jumpi\n                /* \"#utility.yul\":4009:4010   */\n              0x00\n                /* \"#utility.yul\":4000:4006   */\n              dup5\n                /* \"#utility.yul\":3995:3998   */\n              dup5\n                /* \"#utility.yul\":3991:4007   */\n              add\n                /* \"#utility.yul\":3984:4011   */\n              mstore\n                /* \"#utility.yul\":3920:4021   */\n            tag_185:\n                /* \"#utility.yul\":3769:4027   */\n              pop\n                /* \"#utility.yul\":3720:4027   */\n              pop\n              pop\n              pop\n              jump\t// out\n                /* \"#utility.yul\":4033:4135   */\n            tag_123:\n                /* \"#utility.yul\":4074:4080   */\n              0x00\n                /* \"#utility.yul\":4125:4127   */\n              0x1f\n                /* \"#utility.yul\":4121:4128   */\n              not\n                /* \"#utility.yul\":4116:4118   */\n              0x1f\n                /* \"#utility.yul\":4109:4114   */\n              dup4\n                /* \"#utility.yul\":4105:4119   */\n              add\n                /* \"#utility.yul\":4101:4129   */\n              and\n                /* \"#utility.yul\":4091:4129   */\n              swap1\n              pop\n                /* \"#utility.yul\":4033:4135   */\n              swap2\n              swap1\n              pop\n              jump\t// out\n                /* \"#utility.yul\":4141:4505   */\n            tag_124:\n                /* \"#utility.yul\":4229:4232   */\n              0x00\n                /* \"#utility.yul\":4257:4296   */\n              tag_188\n                /* \"#utility.yul\":4290:4295   */\n              dup3\n                /* \"#utility.yul\":4257:4296   */\n              tag_120\n              jump\t// in\n            tag_188:\n                /* \"#utility.yul\":4312:4383   */\n              tag_189\n                /* \"#utility.yul\":4376:4382   */\n              dup2\n                /* \"#utility.yul\":4371:4374   */\n              dup6\n                /* \"#utility.yul\":4312:4383   */\n              tag_121\n              jump\t// in\n            tag_189:\n                /* \"#utility.yul\":4305:4383   */\n              swap4\n              pop\n                /* \"#utility.yul\":4392:4444   */\n              tag_190\n                /* \"#utility.yul\":4437:4443   */\n              dup2\n                /* \"#utility.yul\":4432:4435   */\n              dup6\n                /* \"#utility.yul\":4425:4429   */\n              0x20\n                /* \"#utility.yul\":4418:4423   */\n              dup7\n                /* \"#utility.yul\":4414:4430   */\n              add\n                /* \"#utility.yul\":4392:4444   */\n              tag_122\n              jump\t// in\n            tag_190:\n                /* \"#utility.yul\":4469:4498   */\n              tag_191\n                /* \"#utility.yul\":4491:4497   */\n              dup2\n                /* \"#utility.yul\":4469:4498   */\n              tag_123\n              jump\t// in\n            tag_191:\n                /* \"#utility.yul\":4464:4467   */\n              dup5\n                /* \"#utility.yul\":4460:4499   */\n              add\n                /* \"#utility.yul\":4453:4499   */\n              swap2\n              pop\n                /* \"#utility.yul\":4233:4505   */\n              pop\n                /* \"#utility.yul\":4141:4505   */\n              swap3\n              swap2\n              pop\n              pop\n              jump\t// out\n                /* \"#utility.yul\":4511:5254   */\n            tag_41:\n                /* \"#utility.yul\":4730:4734   */\n              0x00\n                /* \"#utility.yul\":4768:4771   */\n              0xa0\n                /* \"#utility.yul\":4757:4766   */\n              dup3\n                /* \"#utility.yul\":4753:4772   */\n              add\n                /* \"#utility.yul\":4745:4772   */\n              swap1\n              pop\n                /* \"#utility.yul\":4818:4827   */\n              dup2\n                /* \"#utility.yul\":4812:4816   */\n              dup2\n                /* \"#utility.yul\":4808:4828   */\n              sub\n                /* \"#utility.yul\":4804:4805   */\n              0x00\n                /* \"#utility.yul\":4793:4802   */\n              dup4\n                /* \"#utility.yul\":4789:4806   */\n              add\n                /* \"#utility.yul\":4782:4829   */\n              mstore\n                /* \"#utility.yul\":4846:4924   */\n              tag_193\n                /* \"#utility.yul\":4919:4923   */\n              dup2\n                /* \"#utility.yul\":4910:4916   */\n              dup9\n                /* \"#utility.yul\":4846:4924   */\n              tag_124\n              jump\t// in\n            tag_193:\n                /* \"#utility.yul\":4838:4924   */\n              swap1\n              pop\n                /* \"#utility.yul\":4934:5006   */\n              tag_194\n                /* \"#utility.yul\":5002:5004   */\n              0x20\n                /* \"#utility.yul\":4991:5000   */\n              dup4\n                /* \"#utility.yul\":4987:5005   */\n              add\n                /* \"#utility.yul\":4978:4984   */\n              dup8\n                /* \"#utility.yul\":4934:5006   */\n              tag_118\n              jump\t// in\n            tag_194:\n                /* \"#utility.yul\":5016:5088   */\n              tag_195\n                /* \"#utility.yul\":5084:5086   */\n              0x40\n                /* \"#utility.yul\":5073:5082   */\n              dup4\n                /* \"#utility.yul\":5069:5087   */\n              add\n                /* \"#utility.yul\":5060:5066   */\n              dup7\n                /* \"#utility.yul\":5016:5088   */\n              tag_119\n              jump\t// in\n            tag_195:\n                /* \"#utility.yul\":5098:5164   */\n              tag_196\n                /* \"#utility.yul\":5160:5162   */\n              0x60\n                /* \"#utility.yul\":5149:5158   */\n              dup4\n                /* \"#utility.yul\":5145:5163   */\n              add\n                /* \"#utility.yul\":5136:5142   */\n              dup6\n                /* \"#utility.yul\":5098:5164   */\n              tag_117\n              jump\t// in\n            tag_196:\n                /* \"#utility.yul\":5174:5247   */\n              tag_197\n                /* \"#utility.yul\":5242:5245   */\n              0x80\n                /* \"#utility.yul\":5231:5240   */\n              dup4\n                /* \"#utility.yul\":5227:5246   */\n              add\n                /* \"#utility.yul\":5218:5224   */\n              dup5\n                /* \"#utility.yul\":5174:5247   */\n              tag_118\n              jump\t// in\n            tag_197:\n                /* \"#utility.yul\":4511:5254   */\n              swap7\n              swap6\n              pop\n              pop\n              pop\n              pop\n              pop\n              pop\n              jump\t// out\n                /* \"#utility.yul\":5260:5482   */\n            tag_46:\n                /* \"#utility.yul\":5353:5357   */\n              0x00\n                /* \"#utility.yul\":5391:5393   */\n              0x20\n                /* \"#utility.yul\":5380:5389   */\n              dup3\n                /* \"#utility.yul\":5376:5394   */\n              add\n                /* \"#utility.yul\":5368:5394   */\n              swap1\n              pop\n                /* \"#utility.yul\":5404:5475   */\n              tag_199\n                /* \"#utility.yul\":5472:5473   */\n              0x00\n                /* \"#utility.yul\":5461:5470   */\n              dup4\n                /* \"#utility.yul\":5457:5474   */\n              add\n                /* \"#utility.yul\":5448:5454   */\n              dup5\n                /* \"#utility.yul\":5404:5475   */\n              tag_118\n              jump\t// in\n            tag_199:\n                /* \"#utility.yul\":5260:5482   */\n              swap3\n              swap2\n              pop\n              pop\n              jump\t// out\n                /* \"#utility.yul\":5488:5605   */\n            tag_125:\n                /* \"#utility.yul\":5597:5598   */\n              0x00\n                /* \"#utility.yul\":5594:5595   */\n              dup1\n                /* \"#utility.yul\":5587:5599   */\n              revert\n                /* \"#utility.yul\":5611:5728   */\n            tag_126:\n                /* \"#utility.yul\":5720:5721   */\n              0x00\n                /* \"#utility.yul\":5717:5718   */\n              dup1\n                /* \"#utility.yul\":5710:5722   */\n              revert\n                /* \"#utility.yul\":5734:5914   */\n            tag_127:\n                /* \"#utility.yul\":5782:5859   */\n              0x4e487b7100000000000000000000000000000000000000000000000000000000\n                /* \"#utility.yul\":5779:5780   */\n              0x00\n                /* \"#utility.yul\":5772:5860   */\n              mstore\n                /* \"#utility.yul\":5879:5883   */\n              0x41\n                /* \"#utility.yul\":5876:5877   */\n              0x04\n                /* \"#utility.yul\":5869:5884   */\n              mstore\n                /* \"#utility.yul\":5903:5907   */\n              0x24\n                /* \"#utility.yul\":5900:5901   */\n              0x00\n                /* \"#utility.yul\":5893:5908   */\n              revert\n                /* \"#utility.yul\":5920:6201   */\n            tag_128:\n                /* \"#utility.yul\":6003:6030   */\n              tag_204\n                /* \"#utility.yul\":6025:6029   */\n              dup3\n                /* \"#utility.yul\":6003:6030   */\n              tag_123\n              jump\t// in\n            tag_204:\n                /* \"#utility.yul\":5995:6001   */\n              dup2\n                /* \"#utility.yul\":5991:6031   */\n              add\n                /* \"#utility.yul\":6133:6139   */\n              dup2\n                /* \"#utility.yul\":6121:6131   */\n              dup2\n                /* \"#utility.yul\":6118:6140   */\n              lt\n                /* \"#utility.yul\":6097:6115   */\n              0xffffffffffffffff\n                /* \"#utility.yul\":6085:6095   */\n              dup3\n                /* \"#utility.yul\":6082:6116   */\n              gt\n                /* \"#utility.yul\":6079:6141   */\n              or\n                /* \"#utility.yul\":6076:6164   */\n              iszero\n              tag_205\n              jumpi\n                /* \"#utility.yul\":6144:6162   */\n              tag_206\n              tag_127\n              jump\t// in\n            tag_206:\n                /* \"#utility.yul\":6076:6164   */\n            tag_205:\n                /* \"#utility.yul\":6184:6194   */\n              dup1\n                /* \"#utility.yul\":6180:6182   */\n              0x40\n                /* \"#utility.yul\":6173:6195   */\n              mstore\n                /* \"#utility.yul\":5963:6201   */\n              pop\n                /* \"#utility.yul\":5920:6201   */\n              pop\n              pop\n              jump\t// out\n                /* \"#utility.yul\":6207:6336   */\n            tag_129:\n                /* \"#utility.yul\":6241:6247   */\n              0x00\n                /* \"#utility.yul\":6268:6288   */\n              tag_208\n              tag_106\n              jump\t// in\n            tag_208:\n                /* \"#utility.yul\":6258:6288   */\n              swap1\n              pop\n                /* \"#utility.yul\":6297:6330   */\n              tag_209\n                /* \"#utility.yul\":6325:6329   */\n              dup3\n                /* \"#utility.yul\":6317:6323   */\n              dup3\n                /* \"#utility.yul\":6297:6330   */\n              tag_128\n              jump\t// in\n            tag_209:\n                /* \"#utility.yul\":6207:6336   */\n              swap2\n              swap1\n              pop\n              jump\t// out\n                /* \"#utility.yul\":6342:6650   */\n            tag_130:\n                /* \"#utility.yul\":6404:6408   */\n              0x00\n                /* \"#utility.yul\":6494:6512   */\n              0xffffffffffffffff\n                /* \"#utility.yul\":6486:6492   */\n              dup3\n                /* \"#utility.yul\":6483:6513   */\n              gt\n                /* \"#utility.yul\":6480:6536   */\n              iszero\n              tag_211\n              jumpi\n                /* \"#utility.yul\":6516:6534   */\n              tag_212\n              tag_127\n              jump\t// in\n            tag_212:\n                /* \"#utility.yul\":6480:6536   */\n            tag_211:\n                /* \"#utility.yul\":6554:6583   */\n              tag_213\n                /* \"#utility.yul\":6576:6582   */\n              dup3\n                /* \"#utility.yul\":6554:6583   */\n              tag_123\n              jump\t// in\n            tag_213:\n                /* \"#utility.yul\":6546:6583   */\n              swap1\n              pop\n                /* \"#utility.yul\":6638:6642   */\n              0x20\n                /* \"#utility.yul\":6632:6636   */\n              dup2\n                /* \"#utility.yul\":6628:6643   */\n              add\n                /* \"#utility.yul\":6620:6643   */\n              swap1\n              pop\n                /* \"#utility.yul\":6342:6650   */\n              swap2\n              swap1\n              pop\n              jump\t// out\n                /* \"#utility.yul\":6656:6810   */\n            tag_131:\n                /* \"#utility.yul\":6740:6746   */\n              dup3\n                /* \"#utility.yul\":6735:6738   */\n              dup2\n                /* \"#utility.yul\":6730:6733   */\n              dup4\n                /* \"#utility.yul\":6717:6747   */\n              calldatacopy\n                /* \"#utility.yul\":6802:6803   */\n              0x00\n                /* \"#utility.yul\":6793:6799   */\n              dup4\n                /* \"#utility.yul\":6788:6791   */\n              dup4\n                /* \"#utility.yul\":6784:6800   */\n              add\n                /* \"#utility.yul\":6777:6804   */\n              mstore\n                /* \"#utility.yul\":6656:6810   */\n              pop\n              pop\n              pop\n              jump\t// out\n                /* \"#utility.yul\":6816:7228   */\n            tag_132:\n                /* \"#utility.yul\":6894:6899   */\n              0x00\n                /* \"#utility.yul\":6919:6985   */\n              tag_216\n                /* \"#utility.yul\":6935:6984   */\n              tag_217\n                /* \"#utility.yul\":6977:6983   */\n              dup5\n                /* \"#utility.yul\":6935:6984   */\n              tag_130\n              jump\t// in\n            tag_217:\n                /* \"#utility.yul\":6919:6985   */\n              tag_129\n              jump\t// in\n            tag_216:\n                /* \"#utility.yul\":6910:6985   */\n              swap1\n              pop\n                /* \"#utility.yul\":7008:7014   */\n              dup3\n                /* \"#utility.yul\":7001:7006   */\n              dup2\n                /* \"#utility.yul\":6994:7015   */\n              mstore\n                /* \"#utility.yul\":7046:7050   */\n              0x20\n                /* \"#utility.yul\":7039:7044   */\n              dup2\n                /* \"#utility.yul\":7035:7051   */\n              add\n                /* \"#utility.yul\":7084:7087   */\n              dup5\n                /* \"#utility.yul\":7075:7081   */\n              dup5\n                /* \"#utility.yul\":7070:7073   */\n              dup5\n                /* \"#utility.yul\":7066:7082   */\n              add\n                /* \"#utility.yul\":7063:7088   */\n              gt\n                /* \"#utility.yul\":7060:7172   */\n              iszero\n              tag_218\n              jumpi\n                /* \"#utility.yul\":7091:7170   */\n              tag_219\n              tag_126\n              jump\t// in\n            tag_219:\n                /* \"#utility.yul\":7060:7172   */\n            tag_218:\n                /* \"#utility.yul\":7181:7222   */\n              tag_220\n                /* \"#utility.yul\":7215:7221   */\n              dup5\n                /* \"#utility.yul\":7210:7213   */\n              dup3\n                /* \"#utility.yul\":7205:7208   */\n              dup6\n                /* \"#utility.yul\":7181:7222   */\n              tag_131\n              jump\t// in\n            tag_220:\n                /* \"#utility.yul\":6900:7228   */\n              pop\n                /* \"#utility.yul\":6816:7228   */\n              swap4\n              swap3\n              pop\n              pop\n              pop\n              jump\t// out\n                /* \"#utility.yul\":7248:7588   */\n            tag_133:\n                /* \"#utility.yul\":7304:7309   */\n              0x00\n                /* \"#utility.yul\":7353:7356   */\n              dup3\n                /* \"#utility.yul\":7346:7350   */\n              0x1f\n                /* \"#utility.yul\":7338:7344   */\n              dup4\n                /* \"#utility.yul\":7334:7351   */\n              add\n                /* \"#utility.yul\":7330:7357   */\n              slt\n                /* \"#utility.yul\":7320:7442   */\n              tag_222\n              jumpi\n                /* \"#utility.yul\":7361:7440   */\n              tag_223\n              tag_125\n              jump\t// in\n            tag_223:\n                /* \"#utility.yul\":7320:7442   */\n            tag_222:\n                /* \"#utility.yul\":7478:7484   */\n              dup2\n                /* \"#utility.yul\":7465:7485   */\n              calldataload\n                /* \"#utility.yul\":7503:7582   */\n              tag_224\n                /* \"#utility.yul\":7578:7581   */\n              dup5\n                /* \"#utility.yul\":7570:7576   */\n              dup3\n                /* \"#utility.yul\":7563:7567   */\n              0x20\n                /* \"#utility.yul\":7555:7561   */\n              dup7\n                /* \"#utility.yul\":7551:7568   */\n              add\n                /* \"#utility.yul\":7503:7582   */\n              tag_132\n              jump\t// in\n            tag_224:\n                /* \"#utility.yul\":7494:7582   */\n              swap2\n              pop\n                /* \"#utility.yul\":7310:7588   */\n              pop\n                /* \"#utility.yul\":7248:7588   */\n              swap3\n              swap2\n              pop\n              pop\n              jump\t// out\n                /* \"#utility.yul\":7594:8393   */\n            tag_50:\n                /* \"#utility.yul\":7681:7687   */\n              0x00\n                /* \"#utility.yul\":7689:7695   */\n              dup1\n                /* \"#utility.yul\":7697:7703   */\n              0x00\n                /* \"#utility.yul\":7746:7748   */\n              0x60\n                /* \"#utility.yul\":7734:7743   */\n              dup5\n                /* \"#utility.yul\":7725:7732   */\n              dup7\n                /* \"#utility.yul\":7721:7744   */\n              sub\n                /* \"#utility.yul\":7717:7749   */\n              slt\n                /* \"#utility.yul\":7714:7833   */\n              iszero\n              tag_226\n              jumpi\n                /* \"#utility.yul\":7752:7831   */\n              tag_227\n              tag_107\n              jump\t// in\n            tag_227:\n                /* \"#utility.yul\":7714:7833   */\n            tag_226:\n                /* \"#utility.yul\":7900:7901   */\n              0x00\n                /* \"#utility.yul\":7889:7898   */\n              dup5\n                /* \"#utility.yul\":7885:7902   */\n              add\n                /* \"#utility.yul\":7872:7903   */\n              calldataload\n                /* \"#utility.yul\":7930:7948   */\n              0xffffffffffffffff\n                /* \"#utility.yul\":7922:7928   */\n              dup2\n                /* \"#utility.yul\":7919:7949   */\n              gt\n                /* \"#utility.yul\":7916:8033   */\n              iszero\n              tag_228\n              jumpi\n                /* \"#utility.yul\":7952:8031   */\n              tag_229\n              tag_108\n              jump\t// in\n            tag_229:\n                /* \"#utility.yul\":7916:8033   */\n            tag_228:\n                /* \"#utility.yul\":8057:8120   */\n              tag_230\n                /* \"#utility.yul\":8112:8119   */\n              dup7\n                /* \"#utility.yul\":8103:8109   */\n              dup3\n                /* \"#utility.yul\":8092:8101   */\n              dup8\n                /* \"#utility.yul\":8088:8110   */\n              add\n                /* \"#utility.yul\":8057:8120   */\n              tag_133\n              jump\t// in\n            tag_230:\n                /* \"#utility.yul\":8047:8120   */\n              swap4\n              pop\n                /* \"#utility.yul\":7843:8130   */\n              pop\n                /* \"#utility.yul\":8169:8171   */\n              0x20\n                /* \"#utility.yul\":8195:8248   */\n              tag_231\n                /* \"#utility.yul\":8240:8247   */\n              dup7\n                /* \"#utility.yul\":8231:8237   */\n              dup3\n                /* \"#utility.yul\":8220:8229   */\n              dup8\n                /* \"#utility.yul\":8216:8238   */\n              add\n                /* \"#utility.yul\":8195:8248   */\n              tag_111\n              jump\t// in\n            tag_231:\n                /* \"#utility.yul\":8185:8248   */\n              swap3\n              pop\n                /* \"#utility.yul\":8140:8258   */\n              pop\n                /* \"#utility.yul\":8297:8299   */\n              0x40\n                /* \"#utility.yul\":8323:8376   */\n              tag_232\n                /* \"#utility.yul\":8368:8375   */\n              dup7\n                /* \"#utility.yul\":8359:8365   */\n              dup3\n                /* \"#utility.yul\":8348:8357   */\n              dup8\n                /* \"#utility.yul\":8344:8366   */\n              add\n                /* \"#utility.yul\":8323:8376   */\n              tag_115\n              jump\t// in\n            tag_232:\n                /* \"#utility.yul\":8313:8376   */\n              swap2\n              pop\n                /* \"#utility.yul\":8268:8386   */\n              pop\n                /* \"#utility.yul\":7594:8393   */\n              swap3\n              pop\n              swap3\n              pop\n              swap3\n              jump\t// out\n                /* \"#utility.yul\":8399:8579   */\n            tag_134:\n                /* \"#utility.yul\":8447:8524   */\n              0x4e487b7100000000000000000000000000000000000000000000000000000000\n                /* \"#utility.yul\":8444:8445   */\n              0x00\n                /* \"#utility.yul\":8437:8525   */\n              mstore\n                /* \"#utility.yul\":8544:8548   */\n              0x22\n                /* \"#utility.yul\":8541:8542   */\n              0x04\n                /* \"#utility.yul\":8534:8549   */\n              mstore\n                /* \"#utility.yul\":8568:8572   */\n              0x24\n                /* \"#utility.yul\":8565:8566   */\n              0x00\n                /* \"#utility.yul\":8558:8573   */\n              revert\n                /* \"#utility.yul\":8585:8905   */\n            tag_74:\n                /* \"#utility.yul\":8629:8635   */\n              0x00\n                /* \"#utility.yul\":8666:8667   */\n              0x02\n                /* \"#utility.yul\":8660:8664   */\n              dup3\n                /* \"#utility.yul\":8656:8668   */\n              div\n                /* \"#utility.yul\":8646:8668   */\n              swap1\n              pop\n                /* \"#utility.yul\":8713:8714   */\n              0x01\n                /* \"#utility.yul\":8707:8711   */\n              dup3\n                /* \"#utility.yul\":8703:8715   */\n              and\n                /* \"#utility.yul\":8734:8752   */\n              dup1\n                /* \"#utility.yul\":8724:8805   */\n              tag_235\n              jumpi\n                /* \"#utility.yul\":8790:8794   */\n              0x7f\n                /* \"#utility.yul\":8782:8788   */\n              dup3\n                /* \"#utility.yul\":8778:8795   */\n              and\n                /* \"#utility.yul\":8768:8795   */\n              swap2\n              pop\n                /* \"#utility.yul\":8724:8805   */\n            tag_235:\n                /* \"#utility.yul\":8852:8854   */\n              0x20\n                /* \"#utility.yul\":8844:8850   */\n              dup3\n                /* \"#utility.yul\":8841:8855   */\n              lt\n                /* \"#utility.yul\":8821:8839   */\n              dup2\n                /* \"#utility.yul\":8818:8856   */\n              eq\n                /* \"#utility.yul\":8815:8899   */\n              iszero\n              tag_236\n              jumpi\n                /* \"#utility.yul\":8871:8889   */\n              tag_237\n              tag_134\n              jump\t// in\n            tag_237:\n                /* \"#utility.yul\":8815:8899   */\n            tag_236:\n                /* \"#utility.yul\":8636:8905   */\n              pop\n                /* \"#utility.yul\":8585:8905   */\n              swap2\n              swap1\n              pop\n              jump\t// out\n                /* \"#utility.yul\":8911:9091   */\n            tag_135:\n                /* \"#utility.yul\":8959:9036   */\n              0x4e487b7100000000000000000000000000000000000000000000000000000000\n                /* \"#utility.yul\":8956:8957   */\n              0x00\n                /* \"#utility.yul\":8949:9037   */\n              mstore\n                /* \"#utility.yul\":9056:9060   */\n              0x11\n                /* \"#utility.yul\":9053:9054   */\n              0x04\n                /* \"#utility.yul\":9046:9061   */\n              mstore\n                /* \"#utility.yul\":9080:9084   */\n              0x24\n                /* \"#utility.yul\":9077:9078   */\n              0x00\n                /* \"#utility.yul\":9070:9085   */\n              revert\n                /* \"#utility.yul\":9097:9330   */\n            tag_86:\n                /* \"#utility.yul\":9136:9139   */\n              0x00\n                /* \"#utility.yul\":9159:9183   */\n              tag_240\n                /* \"#utility.yul\":9177:9182   */\n              dup3\n                /* \"#utility.yul\":9159:9183   */\n              tag_109\n              jump\t// in\n            tag_240:\n                /* \"#utility.yul\":9150:9183   */\n              swap2\n              pop\n                /* \"#utility.yul\":9205:9271   */\n              0xffffffffffffffffffffffffffffffffffffffffffffffffffffffffffffffff\n                /* \"#utility.yul\":9198:9203   */\n              dup3\n                /* \"#utility.yul\":9195:9272   */\n              eq\n                /* \"#utility.yul\":9192:9295   */\n              iszero\n              tag_241\n              jumpi\n                /* \"#utility.yul\":9275:9293   */\n              tag_242\n              tag_135\n              jump\t// in\n            tag_242:\n                /* \"#utility.yul\":9192:9295   */\n            tag_241:\n                /* \"#utility.yul\":9322:9323   */\n              0x01\n                /* \"#utility.yul\":9315:9320   */\n              dup3\n                /* \"#utility.yul\":9311:9324   */\n              add\n                /* \"#utility.yul\":9304:9324   */\n              swap1\n              pop\n                /* \"#utility.yul\":9097:9330   */\n              swap2\n              swap1\n              pop\n              jump\t// out\n\n            auxdata: 0xa26469706673582212208c5aeaf1118fc1a44c02bcbfbd2e5b4db0d411a217c8b84a53b872875a0029e364736f6c634300080b0033\n        }\n    }\n\n    auxdata: 0xa26469706673582212208f7acd710aaddb5c3d53558c81e858b32b0d27d444d09348ba638fc3e499901a64736f6c634300080b0033\n}\n",
    "bytecode": {
      "linkReferences": {},
      "object": "608060405234801561001057600080fd5b506114bb806100206000396000f3fe608060405234801561001057600080fd5b50600436106100415760003560e01c8063339d50a5146100465780639db8d7d514610076578063aa9a068f14610092575b600080fd5b610060600480360381019061005b9190610266565b6100b0565b60405161006d9190610312565b60405180910390f35b610090600480360381019061008b9190610266565b6100ef565b005b61009a610190565b6040516100a791906103eb565b60405180910390f35b600081815481106100c057600080fd5b906000526020600020016000915054906101000a900473ffffffffffffffffffffffffffffffffffffffff1681565b600081336040516100ff9061021e565b61010a92919061043d565b604051809103906000f080158015610126573d6000803e3d6000fd5b5090506000819080600181540180825580915050600190039060005260206000200160009091909190916101000a81548173ffffffffffffffffffffffffffffffffffffffff021916908373ffffffffffffffffffffffffffffffffffffffff1602179055505050565b6060600080548060200260200160405190810160405280929190818152602001828054801561021457602002820191906000526020600020905b8160009054906101000a900473ffffffffffffffffffffffffffffffffffffffff1673ffffffffffffffffffffffffffffffffffffffff16815260200190600101908083116101ca575b5050505050905090565b61101f8061046783390190565b600080fd5b6000819050919050565b61024381610230565b811461024e57600080fd5b50565b6000813590506102608161023a565b92915050565b60006020828403121561027c5761027b61022b565b5b600061028a84828501610251565b91505092915050565b600073ffffffffffffffffffffffffffffffffffffffff82169050919050565b6000819050919050565b60006102d86102d36102ce84610293565b6102b3565b610293565b9050919050565b60006102ea826102bd565b9050919050565b60006102fc826102df565b9050919050565b61030c816102f1565b82525050565b60006020820190506103276000830184610303565b92915050565b600081519050919050565b600082825260208201905092915050565b6000819050602082019050919050565b610362816102f1565b82525050565b60006103748383610359565b60208301905092915050565b6000602082019050919050565b60006103988261032d565b6103a28185610338565b93506103ad83610349565b8060005b838110156103de5781516103c58882610368565b97506103d083610380565b9250506001810190506103b1565b5085935050505092915050565b60006020820190508181036000830152610405818461038d565b905092915050565b61041681610230565b82525050565b600061042782610293565b9050919050565b6104378161041c565b82525050565b6000604082019050610452600083018561040d565b61045f602083018461042e565b939250505056fe6080604052600060045560006006553480156200001b57600080fd5b506040516200101f3803806200101f833981810160405281019062000041919062000135565b806000806101000a81548173ffffffffffffffffffffffffffffffffffffffff021916908373ffffffffffffffffffffffffffffffffffffffff1602179055508160018190555050506200017c565b600080fd5b6000819050919050565b620000aa8162000095565b8114620000b657600080fd5b50565b600081519050620000ca816200009f565b92915050565b600073ffffffffffffffffffffffffffffffffffffffff82169050919050565b6000620000fd82620000d0565b9050919050565b6200010f81620000f0565b81146200011b57600080fd5b50565b6000815190506200012f8162000104565b92915050565b600080604083850312156200014f576200014e62000090565b5b60006200015f85828601620000b9565b925050602062000172858286016200011e565b9150509250929050565b610e93806200018c6000396000f3fe60806040526004361061009c5760003560e01c806382fde0931161006457806382fde093146101a25780638a9cfd55146101cd578063937e09b1146101f6578063d7bb99ba14610221578063d7d1bbdb1461022b578063fbfa4b7f146102545761009c565b806303441006146100a15780630a144391146100ca5780634051ddac14610107578063481c6a751461013657806381d12c5814610161575b600080fd5b3480156100ad57600080fd5b506100c860048036038101906100c39190610958565b61027f565b005b3480156100d657600080fd5b506100f160048036038101906100ec91906109e3565b61039a565b6040516100fe9190610a2b565b60405180910390f35b34801561011357600080fd5b5061011c6103ba565b60405161012d959493929190610a64565b60405180910390f35b34801561014257600080fd5b5061014b6103fe565b6040516101589190610ab7565b60405180910390f35b34801561016d57600080fd5b5061018860048036038101906101839190610958565b610422565b604051610199959493929190610b6b565b60405180910390f35b3480156101ae57600080fd5b506101b761050d565b6040516101c49190610bc5565b60405180910390f35b3480156101d957600080fd5b506101f460048036038101906101ef9190610d15565b610513565b005b34801561020257600080fd5b5061020b610649565b6040516102189190610bc5565b60405180910390f35b61022961064f565b005b34801561023757600080fd5b50610252600480360381019061024d9190610958565b610727565b005b34801561026057600080fd5b50610269610865565b6040516102769190610bc5565b60405180910390f35b60008054906101000a900473ffffffffffffffffffffffffffffffffffffffff1673ffffffffffffffffffffffffffffffffffffffff163373ffffffffffffffffffffffffffffffffffffffff16146102d757600080fd5b60006005600083815260200190815260200160002090508060020160149054906101000a900460ff161561030a57600080fd5b8060020160009054906101000a900473ffffffffffffffffffffffffffffffffffffffff1673ffffffffffffffffffffffffffffffffffffffff166108fc82600101549081150290604051600060405180830381858888f19350505050158015610378573d6000803e3d6000fd5b5060018160020160146101000a81548160ff0219169083151502179055505050565b60026020528060005260406000206000915054906101000a900460ff1681565b60008060008060006001544760065460035460008054906101000a900473ffffffffffffffffffffffffffffffffffffffff16945094509450945094509091929394565b60008054906101000a900473ffffffffffffffffffffffffffffffffffffffff1681565b600560205280600052604060002060009150905080600001805461044590610db3565b80601f016020809104026020016040519081016040528092919081815260200182805461047190610db3565b80156104be5780601f10610493576101008083540402835291602001916104be565b820191906000526020600020905b8154815290600101906020018083116104a157829003601f168201915b5050505050908060010154908060020160009054906101000a900473ffffffffffffffffffffffffffffffffffffffff16908060020160149054906101000a900460ff16908060030154905085565b60035481565b60008054906101000a900473ffffffffffffffffffffffffffffffffffffffff1673ffffffffffffffffffffffffffffffffffffffff163373ffffffffffffffffffffffffffffffffffffffff161461056b57600080fd5b4782111561057857600080fd5b60006005600060045481526020019081526020016000209050838160000190805190602001906105a992919061086b565b50828160010181905550818160020160006101000a81548173ffffffffffffffffffffffffffffffffffffffff021916908373ffffffffffffffffffffffffffffffffffffffff16021790555060008160020160146101000a81548160ff0219169083151502179055506004600081548092919061062690610e14565b91905055506006600081548092919061063e90610e14565b919050555050505050565b60015481565b600154341161065d57600080fd5b6000600260003373ffffffffffffffffffffffffffffffffffffffff1673ffffffffffffffffffffffffffffffffffffffff16815260200190815260200160002060009054906101000a900460ff16905080610724576001600260003373ffffffffffffffffffffffffffffffffffffffff1673ffffffffffffffffffffffffffffffffffffffff16815260200190815260200160002060006101000a81548160ff0219169083151502179055506003600081548092919061071e90610e14565b91905055505b50565b6000600560008381526020019081526020016000209050600260003373ffffffffffffffffffffffffffffffffffffffff1673ffffffffffffffffffffffffffffffffffffffff16815260200190815260200160002060009054906101000a900460ff1661079457600080fd5b8060040160003373ffffffffffffffffffffffffffffffffffffffff1673ffffffffffffffffffffffffffffffffffffffff16815260200190815260200160002060009054906101000a900460ff16156107ed57600080fd5b60018160040160003373ffffffffffffffffffffffffffffffffffffffff1673ffffffffffffffffffffffffffffffffffffffff16815260200190815260200160002060006101000a81548160ff02191690831515021790555080600301600081548092919061085c90610e14565b91905055505050565b60065481565b82805461087790610db3565b90600052602060002090601f01602090048101928261089957600085556108e0565b82601f106108b257805160ff19168380011785556108e0565b828001600101855582156108e0579182015b828111156108df5782518255916020019190600101906108c4565b5b5090506108ed91906108f1565b5090565b5b8082111561090a5760008160009055506001016108f2565b5090565b6000604051905090565b600080fd5b600080fd5b6000819050919050565b61093581610922565b811461094057600080fd5b50565b6000813590506109528161092c565b92915050565b60006020828403121561096e5761096d610918565b5b600061097c84828501610943565b91505092915050565b600073ffffffffffffffffffffffffffffffffffffffff82169050919050565b60006109b082610985565b9050919050565b6109c0816109a5565b81146109cb57600080fd5b50565b6000813590506109dd816109b7565b92915050565b6000602082840312156109f9576109f8610918565b5b6000610a07848285016109ce565b91505092915050565b60008115159050919050565b610a2581610a10565b82525050565b6000602082019050610a406000830184610a1c565b92915050565b610a4f81610922565b82525050565b610a5e816109a5565b82525050565b600060a082019050610a796000830188610a46565b610a866020830187610a46565b610a936040830186610a46565b610aa06060830185610a46565b610aad6080830184610a55565b9695505050505050565b6000602082019050610acc6000830184610a55565b92915050565b600081519050919050565b600082825260208201905092915050565b60005b83811015610b0c578082015181840152602081019050610af1565b83811115610b1b576000848401525b50505050565b6000601f19601f8301169050919050565b6000610b3d82610ad2565b610b478185610add565b9350610b57818560208601610aee565b610b6081610b21565b840191505092915050565b600060a0820190508181036000830152610b858188610b32565b9050610b946020830187610a46565b610ba16040830186610a55565b610bae6060830185610a1c565b610bbb6080830184610a46565b9695505050505050565b6000602082019050610bda6000830184610a46565b92915050565b600080fd5b600080fd5b7f4e487b7100000000000000000000000000000000000000000000000000000000600052604160045260246000fd5b610c2282610b21565b810181811067ffffffffffffffff82111715610c4157610c40610bea565b5b80604052505050565b6000610c5461090e565b9050610c608282610c19565b919050565b600067ffffffffffffffff821115610c8057610c7f610bea565b5b610c8982610b21565b9050602081019050919050565b82818337600083830152505050565b6000610cb8610cb384610c65565b610c4a565b905082815260208101848484011115610cd457610cd3610be5565b5b610cdf848285610c96565b509392505050565b600082601f830112610cfc57610cfb610be0565b5b8135610d0c848260208601610ca5565b91505092915050565b600080600060608486031215610d2e57610d2d610918565b5b600084013567ffffffffffffffff811115610d4c57610d4b61091d565b5b610d5886828701610ce7565b9350506020610d6986828701610943565b9250506040610d7a868287016109ce565b9150509250925092565b7f4e487b7100000000000000000000000000000000000000000000000000000000600052602260045260246000fd5b60006002820490506001821680610dcb57607f821691505b60208210811415610ddf57610dde610d84565b5b50919050565b7f4e487b7100000000000000000000000000000000000000000000000000000000600052601160045260246000fd5b6000610e1f82610922565b91507fffffffffffffffffffffffffffffffffffffffffffffffffffffffffffffffff821415610e5257610e51610de5565b5b60018201905091905056fea26469706673582212208c5aeaf1118fc1a44c02bcbfbd2e5b4db0d411a217c8b84a53b872875a0029e364736f6c634300080b0033a26469706673582212208f7acd710aaddb5c3d53558c81e858b32b0d27d444d09348ba638fc3e499901a64736f6c634300080b0033",
      "opcodes": "PUSH1 0x80 PUSH1 0x40 MSTORE CALLVALUE DUP1 ISZERO PUSH2 0x10 JUMPI PUSH1 0x0 DUP1 REVERT JUMPDEST POP PUSH2 0x14BB DUP1 PUSH2 0x20 PUSH1 0x0 CODECOPY PUSH1 0x0 RETURN INVALID PUSH1 0x80 PUSH1 0x40 MSTORE CALLVALUE DUP1 ISZERO PUSH2 0x10 JUMPI PUSH1 0x0 DUP1 REVERT JUMPDEST POP PUSH1 0x4 CALLDATASIZE LT PUSH2 0x41 JUMPI PUSH1 0x0 CALLDATALOAD PUSH1 0xE0 SHR DUP1 PUSH4 0x339D50A5 EQ PUSH2 0x46 JUMPI DUP1 PUSH4 0x9DB8D7D5 EQ PUSH2 0x76 JUMPI DUP1 PUSH4 0xAA9A068F EQ PUSH2 0x92 JUMPI JUMPDEST PUSH1 0x0 DUP1 REVERT JUMPDEST PUSH2 0x60 PUSH1 0x4 DUP1 CALLDATASIZE SUB DUP2 ADD SWAP1 PUSH2 0x5B SWAP2 SWAP1 PUSH2 0x266 JUMP JUMPDEST PUSH2 0xB0 JUMP JUMPDEST PUSH1 0x40 MLOAD PUSH2 0x6D SWAP2 SWAP1 PUSH2 0x312 JUMP JUMPDEST PUSH1 0x40 MLOAD DUP1 SWAP2 SUB SWAP1 RETURN JUMPDEST PUSH2 0x90 PUSH1 0x4 DUP1 CALLDATASIZE SUB DUP2 ADD SWAP1 PUSH2 0x8B SWAP2 SWAP1 PUSH2 0x266 JUMP JUMPDEST PUSH2 0xEF JUMP JUMPDEST STOP JUMPDEST PUSH2 0x9A PUSH2 0x190 JUMP JUMPDEST PUSH1 0x40 MLOAD PUSH2 0xA7 SWAP2 SWAP1 PUSH2 0x3EB JUMP JUMPDEST PUSH1 0x40 MLOAD DUP1 SWAP2 SUB SWAP1 RETURN JUMPDEST PUSH1 0x0 DUP2 DUP2 SLOAD DUP2 LT PUSH2 0xC0 JUMPI PUSH1 0x0 DUP1 REVERT JUMPDEST SWAP1 PUSH1 0x0 MSTORE PUSH1 0x20 PUSH1 0x0 KECCAK256 ADD PUSH1 0x0 SWAP2 POP SLOAD SWAP1 PUSH2 0x100 EXP SWAP1 DIV PUSH20 0xFFFFFFFFFFFFFFFFFFFFFFFFFFFFFFFFFFFFFFFF AND DUP2 JUMP JUMPDEST PUSH1 0x0 DUP2 CALLER PUSH1 0x40 MLOAD PUSH2 0xFF SWAP1 PUSH2 0x21E JUMP JUMPDEST PUSH2 0x10A SWAP3 SWAP2 SWAP1 PUSH2 0x43D JUMP JUMPDEST PUSH1 0x40 MLOAD DUP1 SWAP2 SUB SWAP1 PUSH1 0x0 CREATE DUP1 ISZERO DUP1 ISZERO PUSH2 0x126 JUMPI RETURNDATASIZE PUSH1 0x0 DUP1 RETURNDATACOPY RETURNDATASIZE PUSH1 0x0 REVERT JUMPDEST POP SWAP1 POP PUSH1 0x0 DUP2 SWAP1 DUP1 PUSH1 0x1 DUP2 SLOAD ADD DUP1 DUP3 SSTORE DUP1 SWAP2 POP POP PUSH1 0x1 SWAP1 SUB SWAP1 PUSH1 0x0 MSTORE PUSH1 0x20 PUSH1 0x0 KECCAK256 ADD PUSH1 0x0 SWAP1 SWAP2 SWAP1 SWAP2 SWAP1 SWAP2 PUSH2 0x100 EXP DUP2 SLOAD DUP2 PUSH20 0xFFFFFFFFFFFFFFFFFFFFFFFFFFFFFFFFFFFFFFFF MUL NOT AND SWAP1 DUP4 PUSH20 0xFFFFFFFFFFFFFFFFFFFFFFFFFFFFFFFFFFFFFFFF AND MUL OR SWAP1 SSTORE POP POP POP JUMP JUMPDEST PUSH1 0x60 PUSH1 0x0 DUP1 SLOAD DUP1 PUSH1 0x20 MUL PUSH1 0x20 ADD PUSH1 0x40 MLOAD SWAP1 DUP2 ADD PUSH1 0x40 MSTORE DUP1 SWAP3 SWAP2 SWAP1 DUP2 DUP2 MSTORE PUSH1 0x20 ADD DUP3 DUP1 SLOAD DUP1 ISZERO PUSH2 0x214 JUMPI PUSH1 0x20 MUL DUP3 ADD SWAP2 SWAP1 PUSH1 0x0 MSTORE PUSH1 0x20 PUSH1 0x0 KECCAK256 SWAP1 JUMPDEST DUP2 PUSH1 0x0 SWAP1 SLOAD SWAP1 PUSH2 0x100 EXP SWAP1 DIV PUSH20 0xFFFFFFFFFFFFFFFFFFFFFFFFFFFFFFFFFFFFFFFF AND PUSH20 0xFFFFFFFFFFFFFFFFFFFFFFFFFFFFFFFFFFFFFFFF AND DUP2 MSTORE PUSH1 0x20 ADD SWAP1 PUSH1 0x1 ADD SWAP1 DUP1 DUP4 GT PUSH2 0x1CA JUMPI JUMPDEST POP POP POP POP POP SWAP1 POP SWAP1 JUMP JUMPDEST PUSH2 0x101F DUP1 PUSH2 0x467 DUP4 CODECOPY ADD SWAP1 JUMP JUMPDEST PUSH1 0x0 DUP1 REVERT JUMPDEST PUSH1 0x0 DUP2 SWAP1 POP SWAP2 SWAP1 POP JUMP JUMPDEST PUSH2 0x243 DUP2 PUSH2 0x230 JUMP JUMPDEST DUP2 EQ PUSH2 0x24E JUMPI PUSH1 0x0 DUP1 REVERT JUMPDEST POP JUMP JUMPDEST PUSH1 0x0 DUP2 CALLDATALOAD SWAP1 POP PUSH2 0x260 DUP2 PUSH2 0x23A JUMP JUMPDEST SWAP3 SWAP2 POP POP JUMP JUMPDEST PUSH1 0x0 PUSH1 0x20 DUP3 DUP5 SUB SLT ISZERO PUSH2 0x27C JUMPI PUSH2 0x27B PUSH2 0x22B JUMP JUMPDEST JUMPDEST PUSH1 0x0 PUSH2 0x28A DUP5 DUP3 DUP6 ADD PUSH2 0x251 JUMP JUMPDEST SWAP2 POP POP SWAP3 SWAP2 POP POP JUMP JUMPDEST PUSH1 0x0 PUSH20 0xFFFFFFFFFFFFFFFFFFFFFFFFFFFFFFFFFFFFFFFF DUP3 AND SWAP1 POP SWAP2 SWAP1 POP JUMP JUMPDEST PUSH1 0x0 DUP2 SWAP1 POP SWAP2 SWAP1 POP JUMP JUMPDEST PUSH1 0x0 PUSH2 0x2D8 PUSH2 0x2D3 PUSH2 0x2CE DUP5 PUSH2 0x293 JUMP JUMPDEST PUSH2 0x2B3 JUMP JUMPDEST PUSH2 0x293 JUMP JUMPDEST SWAP1 POP SWAP2 SWAP1 POP JUMP JUMPDEST PUSH1 0x0 PUSH2 0x2EA DUP3 PUSH2 0x2BD JUMP JUMPDEST SWAP1 POP SWAP2 SWAP1 POP JUMP JUMPDEST PUSH1 0x0 PUSH2 0x2FC DUP3 PUSH2 0x2DF JUMP JUMPDEST SWAP1 POP SWAP2 SWAP1 POP JUMP JUMPDEST PUSH2 0x30C DUP2 PUSH2 0x2F1 JUMP JUMPDEST DUP3 MSTORE POP POP JUMP JUMPDEST PUSH1 0x0 PUSH1 0x20 DUP3 ADD SWAP1 POP PUSH2 0x327 PUSH1 0x0 DUP4 ADD DUP5 PUSH2 0x303 JUMP JUMPDEST SWAP3 SWAP2 POP POP JUMP JUMPDEST PUSH1 0x0 DUP2 MLOAD SWAP1 POP SWAP2 SWAP1 POP JUMP JUMPDEST PUSH1 0x0 DUP3 DUP3 MSTORE PUSH1 0x20 DUP3 ADD SWAP1 POP SWAP3 SWAP2 POP POP JUMP JUMPDEST PUSH1 0x0 DUP2 SWAP1 POP PUSH1 0x20 DUP3 ADD SWAP1 POP SWAP2 SWAP1 POP JUMP JUMPDEST PUSH2 0x362 DUP2 PUSH2 0x2F1 JUMP JUMPDEST DUP3 MSTORE POP POP JUMP JUMPDEST PUSH1 0x0 PUSH2 0x374 DUP4 DUP4 PUSH2 0x359 JUMP JUMPDEST PUSH1 0x20 DUP4 ADD SWAP1 POP SWAP3 SWAP2 POP POP JUMP JUMPDEST PUSH1 0x0 PUSH1 0x20 DUP3 ADD SWAP1 POP SWAP2 SWAP1 POP JUMP JUMPDEST PUSH1 0x0 PUSH2 0x398 DUP3 PUSH2 0x32D JUMP JUMPDEST PUSH2 0x3A2 DUP2 DUP6 PUSH2 0x338 JUMP JUMPDEST SWAP4 POP PUSH2 0x3AD DUP4 PUSH2 0x349 JUMP JUMPDEST DUP1 PUSH1 0x0 JUMPDEST DUP4 DUP2 LT ISZERO PUSH2 0x3DE JUMPI DUP2 MLOAD PUSH2 0x3C5 DUP9 DUP3 PUSH2 0x368 JUMP JUMPDEST SWAP8 POP PUSH2 0x3D0 DUP4 PUSH2 0x380 JUMP JUMPDEST SWAP3 POP POP PUSH1 0x1 DUP2 ADD SWAP1 POP PUSH2 0x3B1 JUMP JUMPDEST POP DUP6 SWAP4 POP POP POP POP SWAP3 SWAP2 POP POP JUMP JUMPDEST PUSH1 0x0 PUSH1 0x20 DUP3 ADD SWAP1 POP DUP2 DUP2 SUB PUSH1 0x0 DUP4 ADD MSTORE PUSH2 0x405 DUP2 DUP5 PUSH2 0x38D JUMP JUMPDEST SWAP1 POP SWAP3 SWAP2 POP POP JUMP JUMPDEST PUSH2 0x416 DUP2 PUSH2 0x230 JUMP JUMPDEST DUP3 MSTORE POP POP JUMP JUMPDEST PUSH1 0x0 PUSH2 0x427 DUP3 PUSH2 0x293 JUMP JUMPDEST SWAP1 POP SWAP2 SWAP1 POP JUMP JUMPDEST PUSH2 0x437 DUP2 PUSH2 0x41C JUMP JUMPDEST DUP3 MSTORE POP POP JUMP JUMPDEST PUSH1 0x0 PUSH1 0x40 DUP3 ADD SWAP1 POP PUSH2 0x452 PUSH1 0x0 DUP4 ADD DUP6 PUSH2 0x40D JUMP JUMPDEST PUSH2 0x45F PUSH1 0x20 DUP4 ADD DUP5 PUSH2 0x42E JUMP JUMPDEST SWAP4 SWAP3 POP POP POP JUMP INVALID PUSH1 0x80 PUSH1 0x40 MSTORE PUSH1 0x0 PUSH1 0x4 SSTORE PUSH1 0x0 PUSH1 0x6 SSTORE CALLVALUE DUP1 ISZERO PUSH3 0x1B JUMPI PUSH1 0x0 DUP1 REVERT JUMPDEST POP PUSH1 0x40 MLOAD PUSH3 0x101F CODESIZE SUB DUP1 PUSH3 0x101F DUP4 CODECOPY DUP2 DUP2 ADD PUSH1 0x40 MSTORE DUP2 ADD SWAP1 PUSH3 0x41 SWAP2 SWAP1 PUSH3 0x135 JUMP JUMPDEST DUP1 PUSH1 0x0 DUP1 PUSH2 0x100 EXP DUP2 SLOAD DUP2 PUSH20 0xFFFFFFFFFFFFFFFFFFFFFFFFFFFFFFFFFFFFFFFF MUL NOT AND SWAP1 DUP4 PUSH20 0xFFFFFFFFFFFFFFFFFFFFFFFFFFFFFFFFFFFFFFFF AND MUL OR SWAP1 SSTORE POP DUP2 PUSH1 0x1 DUP2 SWAP1 SSTORE POP POP POP PUSH3 0x17C JUMP JUMPDEST PUSH1 0x0 DUP1 REVERT JUMPDEST PUSH1 0x0 DUP2 SWAP1 POP SWAP2 SWAP1 POP JUMP JUMPDEST PUSH3 0xAA DUP2 PUSH3 0x95 JUMP JUMPDEST DUP2 EQ PUSH3 0xB6 JUMPI PUSH1 0x0 DUP1 REVERT JUMPDEST POP JUMP JUMPDEST PUSH1 0x0 DUP2 MLOAD SWAP1 POP PUSH3 0xCA DUP2 PUSH3 0x9F JUMP JUMPDEST SWAP3 SWAP2 POP POP JUMP JUMPDEST PUSH1 0x0 PUSH20 0xFFFFFFFFFFFFFFFFFFFFFFFFFFFFFFFFFFFFFFFF DUP3 AND SWAP1 POP SWAP2 SWAP1 POP JUMP JUMPDEST PUSH1 0x0 PUSH3 0xFD DUP3 PUSH3 0xD0 JUMP JUMPDEST SWAP1 POP SWAP2 SWAP1 POP JUMP JUMPDEST PUSH3 0x10F DUP2 PUSH3 0xF0 JUMP JUMPDEST DUP2 EQ PUSH3 0x11B JUMPI PUSH1 0x0 DUP1 REVERT JUMPDEST POP JUMP JUMPDEST PUSH1 0x0 DUP2 MLOAD SWAP1 POP PUSH3 0x12F DUP2 PUSH3 0x104 JUMP JUMPDEST SWAP3 SWAP2 POP POP JUMP JUMPDEST PUSH1 0x0 DUP1 PUSH1 0x40 DUP4 DUP6 SUB SLT ISZERO PUSH3 0x14F JUMPI PUSH3 0x14E PUSH3 0x90 JUMP JUMPDEST JUMPDEST PUSH1 0x0 PUSH3 0x15F DUP6 DUP3 DUP7 ADD PUSH3 0xB9 JUMP JUMPDEST SWAP3 POP POP PUSH1 0x20 PUSH3 0x172 DUP6 DUP3 DUP7 ADD PUSH3 0x11E JUMP JUMPDEST SWAP2 POP POP SWAP3 POP SWAP3 SWAP1 POP JUMP JUMPDEST PUSH2 0xE93 DUP1 PUSH3 0x18C PUSH1 0x0 CODECOPY PUSH1 0x0 RETURN INVALID PUSH1 0x80 PUSH1 0x40 MSTORE PUSH1 0x4 CALLDATASIZE LT PUSH2 0x9C JUMPI PUSH1 0x0 CALLDATALOAD PUSH1 0xE0 SHR DUP1 PUSH4 0x82FDE093 GT PUSH2 0x64 JUMPI DUP1 PUSH4 0x82FDE093 EQ PUSH2 0x1A2 JUMPI DUP1 PUSH4 0x8A9CFD55 EQ PUSH2 0x1CD JUMPI DUP1 PUSH4 0x937E09B1 EQ PUSH2 0x1F6 JUMPI DUP1 PUSH4 0xD7BB99BA EQ PUSH2 0x221 JUMPI DUP1 PUSH4 0xD7D1BBDB EQ PUSH2 0x22B JUMPI DUP1 PUSH4 0xFBFA4B7F EQ PUSH2 0x254 JUMPI PUSH2 0x9C JUMP JUMPDEST DUP1 PUSH4 0x3441006 EQ PUSH2 0xA1 JUMPI DUP1 PUSH4 0xA144391 EQ PUSH2 0xCA JUMPI DUP1 PUSH4 0x4051DDAC EQ PUSH2 0x107 JUMPI DUP1 PUSH4 0x481C6A75 EQ PUSH2 0x136 JUMPI DUP1 PUSH4 0x81D12C58 EQ PUSH2 0x161 JUMPI JUMPDEST PUSH1 0x0 DUP1 REVERT JUMPDEST CALLVALUE DUP1 ISZERO PUSH2 0xAD JUMPI PUSH1 0x0 DUP1 REVERT JUMPDEST POP PUSH2 0xC8 PUSH1 0x4 DUP1 CALLDATASIZE SUB DUP2 ADD SWAP1 PUSH2 0xC3 SWAP2 SWAP1 PUSH2 0x958 JUMP JUMPDEST PUSH2 0x27F JUMP JUMPDEST STOP JUMPDEST CALLVALUE DUP1 ISZERO PUSH2 0xD6 JUMPI PUSH1 0x0 DUP1 REVERT JUMPDEST POP PUSH2 0xF1 PUSH1 0x4 DUP1 CALLDATASIZE SUB DUP2 ADD SWAP1 PUSH2 0xEC SWAP2 SWAP1 PUSH2 0x9E3 JUMP JUMPDEST PUSH2 0x39A JUMP JUMPDEST PUSH1 0x40 MLOAD PUSH2 0xFE SWAP2 SWAP1 PUSH2 0xA2B JUMP JUMPDEST PUSH1 0x40 MLOAD DUP1 SWAP2 SUB SWAP1 RETURN JUMPDEST CALLVALUE DUP1 ISZERO PUSH2 0x113 JUMPI PUSH1 0x0 DUP1 REVERT JUMPDEST POP PUSH2 0x11C PUSH2 0x3BA JUMP JUMPDEST PUSH1 0x40 MLOAD PUSH2 0x12D SWAP6 SWAP5 SWAP4 SWAP3 SWAP2 SWAP1 PUSH2 0xA64 JUMP JUMPDEST PUSH1 0x40 MLOAD DUP1 SWAP2 SUB SWAP1 RETURN JUMPDEST CALLVALUE DUP1 ISZERO PUSH2 0x142 JUMPI PUSH1 0x0 DUP1 REVERT JUMPDEST POP PUSH2 0x14B PUSH2 0x3FE JUMP JUMPDEST PUSH1 0x40 MLOAD PUSH2 0x158 SWAP2 SWAP1 PUSH2 0xAB7 JUMP JUMPDEST PUSH1 0x40 MLOAD DUP1 SWAP2 SUB SWAP1 RETURN JUMPDEST CALLVALUE DUP1 ISZERO PUSH2 0x16D JUMPI PUSH1 0x0 DUP1 REVERT JUMPDEST POP PUSH2 0x188 PUSH1 0x4 DUP1 CALLDATASIZE SUB DUP2 ADD SWAP1 PUSH2 0x183 SWAP2 SWAP1 PUSH2 0x958 JUMP JUMPDEST PUSH2 0x422 JUMP JUMPDEST PUSH1 0x40 MLOAD PUSH2 0x199 SWAP6 SWAP5 SWAP4 SWAP3 SWAP2 SWAP1 PUSH2 0xB6B JUMP JUMPDEST PUSH1 0x40 MLOAD DUP1 SWAP2 SUB SWAP1 RETURN JUMPDEST CALLVALUE DUP1 ISZERO PUSH2 0x1AE JUMPI PUSH1 0x0 DUP1 REVERT JUMPDEST POP PUSH2 0x1B7 PUSH2 0x50D JUMP JUMPDEST PUSH1 0x40 MLOAD PUSH2 0x1C4 SWAP2 SWAP1 PUSH2 0xBC5 JUMP JUMPDEST PUSH1 0x40 MLOAD DUP1 SWAP2 SUB SWAP1 RETURN JUMPDEST CALLVALUE DUP1 ISZERO PUSH2 0x1D9 JUMPI PUSH1 0x0 DUP1 REVERT JUMPDEST POP PUSH2 0x1F4 PUSH1 0x4 DUP1 CALLDATASIZE SUB DUP2 ADD SWAP1 PUSH2 0x1EF SWAP2 SWAP1 PUSH2 0xD15 JUMP JUMPDEST PUSH2 0x513 JUMP JUMPDEST STOP JUMPDEST CALLVALUE DUP1 ISZERO PUSH2 0x202 JUMPI PUSH1 0x0 DUP1 REVERT JUMPDEST POP PUSH2 0x20B PUSH2 0x649 JUMP JUMPDEST PUSH1 0x40 MLOAD PUSH2 0x218 SWAP2 SWAP1 PUSH2 0xBC5 JUMP JUMPDEST PUSH1 0x40 MLOAD DUP1 SWAP2 SUB SWAP1 RETURN JUMPDEST PUSH2 0x229 PUSH2 0x64F JUMP JUMPDEST STOP JUMPDEST CALLVALUE DUP1 ISZERO PUSH2 0x237 JUMPI PUSH1 0x0 DUP1 REVERT JUMPDEST POP PUSH2 0x252 PUSH1 0x4 DUP1 CALLDATASIZE SUB DUP2 ADD SWAP1 PUSH2 0x24D SWAP2 SWAP1 PUSH2 0x958 JUMP JUMPDEST PUSH2 0x727 JUMP JUMPDEST STOP JUMPDEST CALLVALUE DUP1 ISZERO PUSH2 0x260 JUMPI PUSH1 0x0 DUP1 REVERT JUMPDEST POP PUSH2 0x269 PUSH2 0x865 JUMP JUMPDEST PUSH1 0x40 MLOAD PUSH2 0x276 SWAP2 SWAP1 PUSH2 0xBC5 JUMP JUMPDEST PUSH1 0x40 MLOAD DUP1 SWAP2 SUB SWAP1 RETURN JUMPDEST PUSH1 0x0 DUP1 SLOAD SWAP1 PUSH2 0x100 EXP SWAP1 DIV PUSH20 0xFFFFFFFFFFFFFFFFFFFFFFFFFFFFFFFFFFFFFFFF AND PUSH20 0xFFFFFFFFFFFFFFFFFFFFFFFFFFFFFFFFFFFFFFFF AND CALLER PUSH20 0xFFFFFFFFFFFFFFFFFFFFFFFFFFFFFFFFFFFFFFFF AND EQ PUSH2 0x2D7 JUMPI PUSH1 0x0 DUP1 REVERT JUMPDEST PUSH1 0x0 PUSH1 0x5 PUSH1 0x0 DUP4 DUP2 MSTORE PUSH1 0x20 ADD SWAP1 DUP2 MSTORE PUSH1 0x20 ADD PUSH1 0x0 KECCAK256 SWAP1 POP DUP1 PUSH1 0x2 ADD PUSH1 0x14 SWAP1 SLOAD SWAP1 PUSH2 0x100 EXP SWAP1 DIV PUSH1 0xFF AND ISZERO PUSH2 0x30A JUMPI PUSH1 0x0 DUP1 REVERT JUMPDEST DUP1 PUSH1 0x2 ADD PUSH1 0x0 SWAP1 SLOAD SWAP1 PUSH2 0x100 EXP SWAP1 DIV PUSH20 0xFFFFFFFFFFFFFFFFFFFFFFFFFFFFFFFFFFFFFFFF AND PUSH20 0xFFFFFFFFFFFFFFFFFFFFFFFFFFFFFFFFFFFFFFFF AND PUSH2 0x8FC DUP3 PUSH1 0x1 ADD SLOAD SWAP1 DUP2 ISZERO MUL SWAP1 PUSH1 0x40 MLOAD PUSH1 0x0 PUSH1 0x40 MLOAD DUP1 DUP4 SUB DUP2 DUP6 DUP9 DUP9 CALL SWAP4 POP POP POP POP ISZERO DUP1 ISZERO PUSH2 0x378 JUMPI RETURNDATASIZE PUSH1 0x0 DUP1 RETURNDATACOPY RETURNDATASIZE PUSH1 0x0 REVERT JUMPDEST POP PUSH1 0x1 DUP2 PUSH1 0x2 ADD PUSH1 0x14 PUSH2 0x100 EXP DUP2 SLOAD DUP2 PUSH1 0xFF MUL NOT AND SWAP1 DUP4 ISZERO ISZERO MUL OR SWAP1 SSTORE POP POP POP JUMP JUMPDEST PUSH1 0x2 PUSH1 0x20 MSTORE DUP1 PUSH1 0x0 MSTORE PUSH1 0x40 PUSH1 0x0 KECCAK256 PUSH1 0x0 SWAP2 POP SLOAD SWAP1 PUSH2 0x100 EXP SWAP1 DIV PUSH1 0xFF AND DUP2 JUMP JUMPDEST PUSH1 0x0 DUP1 PUSH1 0x0 DUP1 PUSH1 0x0 PUSH1 0x1 SLOAD SELFBALANCE PUSH1 0x6 SLOAD PUSH1 0x3 SLOAD PUSH1 0x0 DUP1 SLOAD SWAP1 PUSH2 0x100 EXP SWAP1 DIV PUSH20 0xFFFFFFFFFFFFFFFFFFFFFFFFFFFFFFFFFFFFFFFF AND SWAP5 POP SWAP5 POP SWAP5 POP SWAP5 POP SWAP5 POP SWAP1 SWAP2 SWAP3 SWAP4 SWAP5 JUMP JUMPDEST PUSH1 0x0 DUP1 SLOAD SWAP1 PUSH2 0x100 EXP SWAP1 DIV PUSH20 0xFFFFFFFFFFFFFFFFFFFFFFFFFFFFFFFFFFFFFFFF AND DUP2 JUMP JUMPDEST PUSH1 0x5 PUSH1 0x20 MSTORE DUP1 PUSH1 0x0 MSTORE PUSH1 0x40 PUSH1 0x0 KECCAK256 PUSH1 0x0 SWAP2 POP SWAP1 POP DUP1 PUSH1 0x0 ADD DUP1 SLOAD PUSH2 0x445 SWAP1 PUSH2 0xDB3 JUMP JUMPDEST DUP1 PUSH1 0x1F ADD PUSH1 0x20 DUP1 SWAP2 DIV MUL PUSH1 0x20 ADD PUSH1 0x40 MLOAD SWAP1 DUP2 ADD PUSH1 0x40 MSTORE DUP1 SWAP3 SWAP2 SWAP1 DUP2 DUP2 MSTORE PUSH1 0x20 ADD DUP3 DUP1 SLOAD PUSH2 0x471 SWAP1 PUSH2 0xDB3 JUMP JUMPDEST DUP1 ISZERO PUSH2 0x4BE JUMPI DUP1 PUSH1 0x1F LT PUSH2 0x493 JUMPI PUSH2 0x100 DUP1 DUP4 SLOAD DIV MUL DUP4 MSTORE SWAP2 PUSH1 0x20 ADD SWAP2 PUSH2 0x4BE JUMP JUMPDEST DUP3 ADD SWAP2 SWAP1 PUSH1 0x0 MSTORE PUSH1 0x20 PUSH1 0x0 KECCAK256 SWAP1 JUMPDEST DUP2 SLOAD DUP2 MSTORE SWAP1 PUSH1 0x1 ADD SWAP1 PUSH1 0x20 ADD DUP1 DUP4 GT PUSH2 0x4A1 JUMPI DUP3 SWAP1 SUB PUSH1 0x1F AND DUP3 ADD SWAP2 JUMPDEST POP POP POP POP POP SWAP1 DUP1 PUSH1 0x1 ADD SLOAD SWAP1 DUP1 PUSH1 0x2 ADD PUSH1 0x0 SWAP1 SLOAD SWAP1 PUSH2 0x100 EXP SWAP1 DIV PUSH20 0xFFFFFFFFFFFFFFFFFFFFFFFFFFFFFFFFFFFFFFFF AND SWAP1 DUP1 PUSH1 0x2 ADD PUSH1 0x14 SWAP1 SLOAD SWAP1 PUSH2 0x100 EXP SWAP1 DIV PUSH1 0xFF AND SWAP1 DUP1 PUSH1 0x3 ADD SLOAD SWAP1 POP DUP6 JUMP JUMPDEST PUSH1 0x3 SLOAD DUP2 JUMP JUMPDEST PUSH1 0x0 DUP1 SLOAD SWAP1 PUSH2 0x100 EXP SWAP1 DIV PUSH20 0xFFFFFFFFFFFFFFFFFFFFFFFFFFFFFFFFFFFFFFFF AND PUSH20 0xFFFFFFFFFFFFFFFFFFFFFFFFFFFFFFFFFFFFFFFF AND CALLER PUSH20 0xFFFFFFFFFFFFFFFFFFFFFFFFFFFFFFFFFFFFFFFF AND EQ PUSH2 0x56B JUMPI PUSH1 0x0 DUP1 REVERT JUMPDEST SELFBALANCE DUP3 GT ISZERO PUSH2 0x578 JUMPI PUSH1 0x0 DUP1 REVERT JUMPDEST PUSH1 0x0 PUSH1 0x5 PUSH1 0x0 PUSH1 0x4 SLOAD DUP2 MSTORE PUSH1 0x20 ADD SWAP1 DUP2 MSTORE PUSH1 0x20 ADD PUSH1 0x0 KECCAK256 SWAP1 POP DUP4 DUP2 PUSH1 0x0 ADD SWAP1 DUP1 MLOAD SWAP1 PUSH1 0x20 ADD SWAP1 PUSH2 0x5A9 SWAP3 SWAP2 SWAP1 PUSH2 0x86B JUMP JUMPDEST POP DUP3 DUP2 PUSH1 0x1 ADD DUP2 SWAP1 SSTORE POP DUP2 DUP2 PUSH1 0x2 ADD PUSH1 0x0 PUSH2 0x100 EXP DUP2 SLOAD DUP2 PUSH20 0xFFFFFFFFFFFFFFFFFFFFFFFFFFFFFFFFFFFFFFFF MUL NOT AND SWAP1 DUP4 PUSH20 0xFFFFFFFFFFFFFFFFFFFFFFFFFFFFFFFFFFFFFFFF AND MUL OR SWAP1 SSTORE POP PUSH1 0x0 DUP2 PUSH1 0x2 ADD PUSH1 0x14 PUSH2 0x100 EXP DUP2 SLOAD DUP2 PUSH1 0xFF MUL NOT AND SWAP1 DUP4 ISZERO ISZERO MUL OR SWAP1 SSTORE POP PUSH1 0x4 PUSH1 0x0 DUP2 SLOAD DUP1 SWAP3 SWAP2 SWAP1 PUSH2 0x626 SWAP1 PUSH2 0xE14 JUMP JUMPDEST SWAP2 SWAP1 POP SSTORE POP PUSH1 0x6 PUSH1 0x0 DUP2 SLOAD DUP1 SWAP3 SWAP2 SWAP1 PUSH2 0x63E SWAP1 PUSH2 0xE14 JUMP JUMPDEST SWAP2 SWAP1 POP SSTORE POP POP POP POP POP JUMP JUMPDEST PUSH1 0x1 SLOAD DUP2 JUMP JUMPDEST PUSH1 0x1 SLOAD CALLVALUE GT PUSH2 0x65D JUMPI PUSH1 0x0 DUP1 REVERT JUMPDEST PUSH1 0x0 PUSH1 0x2 PUSH1 0x0 CALLER PUSH20 0xFFFFFFFFFFFFFFFFFFFFFFFFFFFFFFFFFFFFFFFF AND PUSH20 0xFFFFFFFFFFFFFFFFFFFFFFFFFFFFFFFFFFFFFFFF AND DUP2 MSTORE PUSH1 0x20 ADD SWAP1 DUP2 MSTORE PUSH1 0x20 ADD PUSH1 0x0 KECCAK256 PUSH1 0x0 SWAP1 SLOAD SWAP1 PUSH2 0x100 EXP SWAP1 DIV PUSH1 0xFF AND SWAP1 POP DUP1 PUSH2 0x724 JUMPI PUSH1 0x1 PUSH1 0x2 PUSH1 0x0 CALLER PUSH20 0xFFFFFFFFFFFFFFFFFFFFFFFFFFFFFFFFFFFFFFFF AND PUSH20 0xFFFFFFFFFFFFFFFFFFFFFFFFFFFFFFFFFFFFFFFF AND DUP2 MSTORE PUSH1 0x20 ADD SWAP1 DUP2 MSTORE PUSH1 0x20 ADD PUSH1 0x0 KECCAK256 PUSH1 0x0 PUSH2 0x100 EXP DUP2 SLOAD DUP2 PUSH1 0xFF MUL NOT AND SWAP1 DUP4 ISZERO ISZERO MUL OR SWAP1 SSTORE POP PUSH1 0x3 PUSH1 0x0 DUP2 SLOAD DUP1 SWAP3 SWAP2 SWAP1 PUSH2 0x71E SWAP1 PUSH2 0xE14 JUMP JUMPDEST SWAP2 SWAP1 POP SSTORE POP JUMPDEST POP JUMP JUMPDEST PUSH1 0x0 PUSH1 0x5 PUSH1 0x0 DUP4 DUP2 MSTORE PUSH1 0x20 ADD SWAP1 DUP2 MSTORE PUSH1 0x20 ADD PUSH1 0x0 KECCAK256 SWAP1 POP PUSH1 0x2 PUSH1 0x0 CALLER PUSH20 0xFFFFFFFFFFFFFFFFFFFFFFFFFFFFFFFFFFFFFFFF AND PUSH20 0xFFFFFFFFFFFFFFFFFFFFFFFFFFFFFFFFFFFFFFFF AND DUP2 MSTORE PUSH1 0x20 ADD SWAP1 DUP2 MSTORE PUSH1 0x20 ADD PUSH1 0x0 KECCAK256 PUSH1 0x0 SWAP1 SLOAD SWAP1 PUSH2 0x100 EXP SWAP1 DIV PUSH1 0xFF AND PUSH2 0x794 JUMPI PUSH1 0x0 DUP1 REVERT JUMPDEST DUP1 PUSH1 0x4 ADD PUSH1 0x0 CALLER PUSH20 0xFFFFFFFFFFFFFFFFFFFFFFFFFFFFFFFFFFFFFFFF AND PUSH20 0xFFFFFFFFFFFFFFFFFFFFFFFFFFFFFFFFFFFFFFFF AND DUP2 MSTORE PUSH1 0x20 ADD SWAP1 DUP2 MSTORE PUSH1 0x20 ADD PUSH1 0x0 KECCAK256 PUSH1 0x0 SWAP1 SLOAD SWAP1 PUSH2 0x100 EXP SWAP1 DIV PUSH1 0xFF AND ISZERO PUSH2 0x7ED JUMPI PUSH1 0x0 DUP1 REVERT JUMPDEST PUSH1 0x1 DUP2 PUSH1 0x4 ADD PUSH1 0x0 CALLER PUSH20 0xFFFFFFFFFFFFFFFFFFFFFFFFFFFFFFFFFFFFFFFF AND PUSH20 0xFFFFFFFFFFFFFFFFFFFFFFFFFFFFFFFFFFFFFFFF AND DUP2 MSTORE PUSH1 0x20 ADD SWAP1 DUP2 MSTORE PUSH1 0x20 ADD PUSH1 0x0 KECCAK256 PUSH1 0x0 PUSH2 0x100 EXP DUP2 SLOAD DUP2 PUSH1 0xFF MUL NOT AND SWAP1 DUP4 ISZERO ISZERO MUL OR SWAP1 SSTORE POP DUP1 PUSH1 0x3 ADD PUSH1 0x0 DUP2 SLOAD DUP1 SWAP3 SWAP2 SWAP1 PUSH2 0x85C SWAP1 PUSH2 0xE14 JUMP JUMPDEST SWAP2 SWAP1 POP SSTORE POP POP POP JUMP JUMPDEST PUSH1 0x6 SLOAD DUP2 JUMP JUMPDEST DUP3 DUP1 SLOAD PUSH2 0x877 SWAP1 PUSH2 0xDB3 JUMP JUMPDEST SWAP1 PUSH1 0x0 MSTORE PUSH1 0x20 PUSH1 0x0 KECCAK256 SWAP1 PUSH1 0x1F ADD PUSH1 0x20 SWAP1 DIV DUP2 ADD SWAP3 DUP3 PUSH2 0x899 JUMPI PUSH1 0x0 DUP6 SSTORE PUSH2 0x8E0 JUMP JUMPDEST DUP3 PUSH1 0x1F LT PUSH2 0x8B2 JUMPI DUP1 MLOAD PUSH1 0xFF NOT AND DUP4 DUP1 ADD OR DUP6 SSTORE PUSH2 0x8E0 JUMP JUMPDEST DUP3 DUP1 ADD PUSH1 0x1 ADD DUP6 SSTORE DUP3 ISZERO PUSH2 0x8E0 JUMPI SWAP2 DUP3 ADD JUMPDEST DUP3 DUP2 GT ISZERO PUSH2 0x8DF JUMPI DUP3 MLOAD DUP3 SSTORE SWAP2 PUSH1 0x20 ADD SWAP2 SWAP1 PUSH1 0x1 ADD SWAP1 PUSH2 0x8C4 JUMP JUMPDEST JUMPDEST POP SWAP1 POP PUSH2 0x8ED SWAP2 SWAP1 PUSH2 0x8F1 JUMP JUMPDEST POP SWAP1 JUMP JUMPDEST JUMPDEST DUP1 DUP3 GT ISZERO PUSH2 0x90A JUMPI PUSH1 0x0 DUP2 PUSH1 0x0 SWAP1 SSTORE POP PUSH1 0x1 ADD PUSH2 0x8F2 JUMP JUMPDEST POP SWAP1 JUMP JUMPDEST PUSH1 0x0 PUSH1 0x40 MLOAD SWAP1 POP SWAP1 JUMP JUMPDEST PUSH1 0x0 DUP1 REVERT JUMPDEST PUSH1 0x0 DUP1 REVERT JUMPDEST PUSH1 0x0 DUP2 SWAP1 POP SWAP2 SWAP1 POP JUMP JUMPDEST PUSH2 0x935 DUP2 PUSH2 0x922 JUMP JUMPDEST DUP2 EQ PUSH2 0x940 JUMPI PUSH1 0x0 DUP1 REVERT JUMPDEST POP JUMP JUMPDEST PUSH1 0x0 DUP2 CALLDATALOAD SWAP1 POP PUSH2 0x952 DUP2 PUSH2 0x92C JUMP JUMPDEST SWAP3 SWAP2 POP POP JUMP JUMPDEST PUSH1 0x0 PUSH1 0x20 DUP3 DUP5 SUB SLT ISZERO PUSH2 0x96E JUMPI PUSH2 0x96D PUSH2 0x918 JUMP JUMPDEST JUMPDEST PUSH1 0x0 PUSH2 0x97C DUP5 DUP3 DUP6 ADD PUSH2 0x943 JUMP JUMPDEST SWAP2 POP POP SWAP3 SWAP2 POP POP JUMP JUMPDEST PUSH1 0x0 PUSH20 0xFFFFFFFFFFFFFFFFFFFFFFFFFFFFFFFFFFFFFFFF DUP3 AND SWAP1 POP SWAP2 SWAP1 POP JUMP JUMPDEST PUSH1 0x0 PUSH2 0x9B0 DUP3 PUSH2 0x985 JUMP JUMPDEST SWAP1 POP SWAP2 SWAP1 POP JUMP JUMPDEST PUSH2 0x9C0 DUP2 PUSH2 0x9A5 JUMP JUMPDEST DUP2 EQ PUSH2 0x9CB JUMPI PUSH1 0x0 DUP1 REVERT JUMPDEST POP JUMP JUMPDEST PUSH1 0x0 DUP2 CALLDATALOAD SWAP1 POP PUSH2 0x9DD DUP2 PUSH2 0x9B7 JUMP JUMPDEST SWAP3 SWAP2 POP POP JUMP JUMPDEST PUSH1 0x0 PUSH1 0x20 DUP3 DUP5 SUB SLT ISZERO PUSH2 0x9F9 JUMPI PUSH2 0x9F8 PUSH2 0x918 JUMP JUMPDEST JUMPDEST PUSH1 0x0 PUSH2 0xA07 DUP5 DUP3 DUP6 ADD PUSH2 0x9CE JUMP JUMPDEST SWAP2 POP POP SWAP3 SWAP2 POP POP JUMP JUMPDEST PUSH1 0x0 DUP2 ISZERO ISZERO SWAP1 POP SWAP2 SWAP1 POP JUMP JUMPDEST PUSH2 0xA25 DUP2 PUSH2 0xA10 JUMP JUMPDEST DUP3 MSTORE POP POP JUMP JUMPDEST PUSH1 0x0 PUSH1 0x20 DUP3 ADD SWAP1 POP PUSH2 0xA40 PUSH1 0x0 DUP4 ADD DUP5 PUSH2 0xA1C JUMP JUMPDEST SWAP3 SWAP2 POP POP JUMP JUMPDEST PUSH2 0xA4F DUP2 PUSH2 0x922 JUMP JUMPDEST DUP3 MSTORE POP POP JUMP JUMPDEST PUSH2 0xA5E DUP2 PUSH2 0x9A5 JUMP JUMPDEST DUP3 MSTORE POP POP JUMP JUMPDEST PUSH1 0x0 PUSH1 0xA0 DUP3 ADD SWAP1 POP PUSH2 0xA79 PUSH1 0x0 DUP4 ADD DUP9 PUSH2 0xA46 JUMP JUMPDEST PUSH2 0xA86 PUSH1 0x20 DUP4 ADD DUP8 PUSH2 0xA46 JUMP JUMPDEST PUSH2 0xA93 PUSH1 0x40 DUP4 ADD DUP7 PUSH2 0xA46 JUMP JUMPDEST PUSH2 0xAA0 PUSH1 0x60 DUP4 ADD DUP6 PUSH2 0xA46 JUMP JUMPDEST PUSH2 0xAAD PUSH1 0x80 DUP4 ADD DUP5 PUSH2 0xA55 JUMP JUMPDEST SWAP7 SWAP6 POP POP POP POP POP POP JUMP JUMPDEST PUSH1 0x0 PUSH1 0x20 DUP3 ADD SWAP1 POP PUSH2 0xACC PUSH1 0x0 DUP4 ADD DUP5 PUSH2 0xA55 JUMP JUMPDEST SWAP3 SWAP2 POP POP JUMP JUMPDEST PUSH1 0x0 DUP2 MLOAD SWAP1 POP SWAP2 SWAP1 POP JUMP JUMPDEST PUSH1 0x0 DUP3 DUP3 MSTORE PUSH1 0x20 DUP3 ADD SWAP1 POP SWAP3 SWAP2 POP POP JUMP JUMPDEST PUSH1 0x0 JUMPDEST DUP4 DUP2 LT ISZERO PUSH2 0xB0C JUMPI DUP1 DUP3 ADD MLOAD DUP2 DUP5 ADD MSTORE PUSH1 0x20 DUP2 ADD SWAP1 POP PUSH2 0xAF1 JUMP JUMPDEST DUP4 DUP2 GT ISZERO PUSH2 0xB1B JUMPI PUSH1 0x0 DUP5 DUP5 ADD MSTORE JUMPDEST POP POP POP POP JUMP JUMPDEST PUSH1 0x0 PUSH1 0x1F NOT PUSH1 0x1F DUP4 ADD AND SWAP1 POP SWAP2 SWAP1 POP JUMP JUMPDEST PUSH1 0x0 PUSH2 0xB3D DUP3 PUSH2 0xAD2 JUMP JUMPDEST PUSH2 0xB47 DUP2 DUP6 PUSH2 0xADD JUMP JUMPDEST SWAP4 POP PUSH2 0xB57 DUP2 DUP6 PUSH1 0x20 DUP7 ADD PUSH2 0xAEE JUMP JUMPDEST PUSH2 0xB60 DUP2 PUSH2 0xB21 JUMP JUMPDEST DUP5 ADD SWAP2 POP POP SWAP3 SWAP2 POP POP JUMP JUMPDEST PUSH1 0x0 PUSH1 0xA0 DUP3 ADD SWAP1 POP DUP2 DUP2 SUB PUSH1 0x0 DUP4 ADD MSTORE PUSH2 0xB85 DUP2 DUP9 PUSH2 0xB32 JUMP JUMPDEST SWAP1 POP PUSH2 0xB94 PUSH1 0x20 DUP4 ADD DUP8 PUSH2 0xA46 JUMP JUMPDEST PUSH2 0xBA1 PUSH1 0x40 DUP4 ADD DUP7 PUSH2 0xA55 JUMP JUMPDEST PUSH2 0xBAE PUSH1 0x60 DUP4 ADD DUP6 PUSH2 0xA1C JUMP JUMPDEST PUSH2 0xBBB PUSH1 0x80 DUP4 ADD DUP5 PUSH2 0xA46 JUMP JUMPDEST SWAP7 SWAP6 POP POP POP POP POP POP JUMP JUMPDEST PUSH1 0x0 PUSH1 0x20 DUP3 ADD SWAP1 POP PUSH2 0xBDA PUSH1 0x0 DUP4 ADD DUP5 PUSH2 0xA46 JUMP JUMPDEST SWAP3 SWAP2 POP POP JUMP JUMPDEST PUSH1 0x0 DUP1 REVERT JUMPDEST PUSH1 0x0 DUP1 REVERT JUMPDEST PUSH32 0x4E487B7100000000000000000000000000000000000000000000000000000000 PUSH1 0x0 MSTORE PUSH1 0x41 PUSH1 0x4 MSTORE PUSH1 0x24 PUSH1 0x0 REVERT JUMPDEST PUSH2 0xC22 DUP3 PUSH2 0xB21 JUMP JUMPDEST DUP2 ADD DUP2 DUP2 LT PUSH8 0xFFFFFFFFFFFFFFFF DUP3 GT OR ISZERO PUSH2 0xC41 JUMPI PUSH2 0xC40 PUSH2 0xBEA JUMP JUMPDEST JUMPDEST DUP1 PUSH1 0x40 MSTORE POP POP POP JUMP JUMPDEST PUSH1 0x0 PUSH2 0xC54 PUSH2 0x90E JUMP JUMPDEST SWAP1 POP PUSH2 0xC60 DUP3 DUP3 PUSH2 0xC19 JUMP JUMPDEST SWAP2 SWAP1 POP JUMP JUMPDEST PUSH1 0x0 PUSH8 0xFFFFFFFFFFFFFFFF DUP3 GT ISZERO PUSH2 0xC80 JUMPI PUSH2 0xC7F PUSH2 0xBEA JUMP JUMPDEST JUMPDEST PUSH2 0xC89 DUP3 PUSH2 0xB21 JUMP JUMPDEST SWAP1 POP PUSH1 0x20 DUP2 ADD SWAP1 POP SWAP2 SWAP1 POP JUMP JUMPDEST DUP3 DUP2 DUP4 CALLDATACOPY PUSH1 0x0 DUP4 DUP4 ADD MSTORE POP POP POP JUMP JUMPDEST PUSH1 0x0 PUSH2 0xCB8 PUSH2 0xCB3 DUP5 PUSH2 0xC65 JUMP JUMPDEST PUSH2 0xC4A JUMP JUMPDEST SWAP1 POP DUP3 DUP2 MSTORE PUSH1 0x20 DUP2 ADD DUP5 DUP5 DUP5 ADD GT ISZERO PUSH2 0xCD4 JUMPI PUSH2 0xCD3 PUSH2 0xBE5 JUMP JUMPDEST JUMPDEST PUSH2 0xCDF DUP5 DUP3 DUP6 PUSH2 0xC96 JUMP JUMPDEST POP SWAP4 SWAP3 POP POP POP JUMP JUMPDEST PUSH1 0x0 DUP3 PUSH1 0x1F DUP4 ADD SLT PUSH2 0xCFC JUMPI PUSH2 0xCFB PUSH2 0xBE0 JUMP JUMPDEST JUMPDEST DUP2 CALLDATALOAD PUSH2 0xD0C DUP5 DUP3 PUSH1 0x20 DUP7 ADD PUSH2 0xCA5 JUMP JUMPDEST SWAP2 POP POP SWAP3 SWAP2 POP POP JUMP JUMPDEST PUSH1 0x0 DUP1 PUSH1 0x0 PUSH1 0x60 DUP5 DUP7 SUB SLT ISZERO PUSH2 0xD2E JUMPI PUSH2 0xD2D PUSH2 0x918 JUMP JUMPDEST JUMPDEST PUSH1 0x0 DUP5 ADD CALLDATALOAD PUSH8 0xFFFFFFFFFFFFFFFF DUP2 GT ISZERO PUSH2 0xD4C JUMPI PUSH2 0xD4B PUSH2 0x91D JUMP JUMPDEST JUMPDEST PUSH2 0xD58 DUP7 DUP3 DUP8 ADD PUSH2 0xCE7 JUMP JUMPDEST SWAP4 POP POP PUSH1 0x20 PUSH2 0xD69 DUP7 DUP3 DUP8 ADD PUSH2 0x943 JUMP JUMPDEST SWAP3 POP POP PUSH1 0x40 PUSH2 0xD7A DUP7 DUP3 DUP8 ADD PUSH2 0x9CE JUMP JUMPDEST SWAP2 POP POP SWAP3 POP SWAP3 POP SWAP3 JUMP JUMPDEST PUSH32 0x4E487B7100000000000000000000000000000000000000000000000000000000 PUSH1 0x0 MSTORE PUSH1 0x22 PUSH1 0x4 MSTORE PUSH1 0x24 PUSH1 0x0 REVERT JUMPDEST PUSH1 0x0 PUSH1 0x2 DUP3 DIV SWAP1 POP PUSH1 0x1 DUP3 AND DUP1 PUSH2 0xDCB JUMPI PUSH1 0x7F DUP3 AND SWAP2 POP JUMPDEST PUSH1 0x20 DUP3 LT DUP2 EQ ISZERO PUSH2 0xDDF JUMPI PUSH2 0xDDE PUSH2 0xD84 JUMP JUMPDEST JUMPDEST POP SWAP2 SWAP1 POP JUMP JUMPDEST PUSH32 0x4E487B7100000000000000000000000000000000000000000000000000000000 PUSH1 0x0 MSTORE PUSH1 0x11 PUSH1 0x4 MSTORE PUSH1 0x24 PUSH1 0x0 REVERT JUMPDEST PUSH1 0x0 PUSH2 0xE1F DUP3 PUSH2 0x922 JUMP JUMPDEST SWAP2 POP PUSH32 0xFFFFFFFFFFFFFFFFFFFFFFFFFFFFFFFFFFFFFFFFFFFFFFFFFFFFFFFFFFFFFFFF DUP3 EQ ISZERO PUSH2 0xE52 JUMPI PUSH2 0xE51 PUSH2 0xDE5 JUMP JUMPDEST JUMPDEST PUSH1 0x1 DUP3 ADD SWAP1 POP SWAP2 SWAP1 POP JUMP INVALID LOG2 PUSH5 0x6970667358 0x22 SLT KECCAK256 DUP13 GAS 0xEA CALL GT DUP16 0xC1 LOG4 0x4C MUL 0xBC 0xBF 0xBD 0x2E JUMPDEST 0x4D 0xB0 0xD4 GT LOG2 OR 0xC8 0xB8 0x4A MSTORE8 0xB8 PUSH19 0x875A0029E364736F6C634300080B0033A26469 PUSH17 0x6673582212208F7ACD710AADDB5C3D5355 DUP13 DUP2 0xE8 PC 0xB3 0x2B 0xD 0x27 0xD4 DIFFICULTY 0xD0 SWAP4 BASEFEE 0xBA PUSH4 0x8FC3E499 SWAP1 BYTE PUSH5 0x736F6C6343 STOP ADDMOD SIGNEXTEND STOP CALLER "
    },
    "gasEstimates": {
      "creation": {
        "codeDepositCost": "1061400",
        "executionCost": "1100",
        "totalCost": "1062500"
      },
      "external": {
        "createContract(uint256)": "infinite",
        "deployedCampaigns(uint256)": "infinite",
        "getDeployedContracts()": "infinite"
      }
    },
    "methodIdentifiers": {
      "createContract(uint256)": "9db8d7d5",
      "deployedCampaigns(uint256)": "339d50a5",
      "getDeployedContracts()": "aa9a068f"
    }
  },
  "storageLayout": {
    "storage": [
      {
        "astId": 5,
        "contract": "campaign.sol:CampaignFactory",
        "label": "deployedCampaigns",
        "offset": 0,
        "slot": "0",
        "type": "t_array(t_contract(Campaign)299)dyn_storage"
      }
    ],
    "types": {
      "t_array(t_contract(Campaign)299)dyn_storage": {
        "base": "t_contract(Campaign)299",
        "encoding": "dynamic_array",
        "label": "contract Campaign[]",
        "numberOfBytes": "32"
      },
      "t_contract(Campaign)299": {
        "encoding": "inplace",
        "label": "contract Campaign",
        "numberOfBytes": "20"
      }
    }
  },
  "userdoc": {
    "kind": "user",
    "methods": {},
    "version": 1
  }
}